:02000002D0002C
:1040000000400D00D8750D00000006000C000501F1
:084010000401DE0500000000C0
:04401800246F0D0004
:10401C0009480A49884208B505D0094A824202D0AB
:10402C00121A02F006FF0748074A0021121A02F082
:10403C0026FF014808BD00BFE0DB032044750D00DE
:10404C004CDC03204CDC0320F0E7032070B502F0BD
:10405C0027FA074C074BE41AA40800251E46A54274
:10406C0004D056F8253098470135F8E770BD00BFED
:10407C003C750D0004750D0000F052B808B500F049
:10408C00B1F8BDE8084002F0CDB900F085BC00F0F5
:10409C008BBC00F089BC0078B0FA80F04009704706
:1040AC00012303707047000013B51146684614468F
:1040BC0001F0F8F90849684600F086FE38B9214647
:1040CC00684601F0EFF90549684600F07DFE044BA7
:1040DC0001221A6002B010BDA4E30320C0DC03204F
:1040EC00E0DC032038B50446006928B185680C2152
:1040FC0002F028FD2846F8E7204638BD10B50446E6
:10410C00006808B100F050FC204610BD0368D86868
:10411C0020B183888B4201D08068F9E7704700009A
:10412C00F8B502F0BDFA4FF4165102F0ADFA01F0F9
:10413C0009FA01F04DFA254A2549264C104601F0A2
:10414C0033F9254A2249104601F02EF9237DFBB1A3
:10415C000123042120462372FFF7D8FF064610B135
:10416C001E4BC36014E01E49102002F0EDFC054606
:10417C0038B310273A46314602F081FE02236B8099
:10418C0004232F80AB802369AB60144BEB6025615B
:10419C00237D104DC3B10C212846FFF7B7FF044611
:1041AC0090B90F490C2002F0CFFC60B10C23022215
:1041BC00446084600380428083802B698360286123
:1041CC00F8BD2075E4E72875F8BD00BF94E3032023
:1041DC00B5400D0050DC03209CE30320E093040069
:1041EC009C740D002DE9F041754888B001F04AF936
:1041FC0020B1744801F046F9002833D1724C00F01C
:10420C00F3F92368C01AB0F5FA6FC0F0D58000F04E
:10421C00EBF9206001F096F914226C4901F0E8F9F1
:10422C000746002800F0C880DFF8A0810025ECB21A
:10423C00A74240F2C18003A800F0D4FD54235C4394
:10424C0004F10800012203A94044604E00F0B1FFC4
:10425C00002800F0AF805E4903A800F063FE002840
:10426C007FD05BE05B4D5C4903A800262E6000F01C
:10427C0025FC5A4BBDF810209A8008AA186852F8F1
:10428C000E1DC3F8061092885A811C4610B100F01E
:10429C008BFB2660039B13B12360002303930398CD
:1042AC0008B100F081FB2368002B33D09B88042BD2
:1042BC0030D14B4C2368012B16DC4A494A4802F09A
:1042CC000FFE494B494A03F1140153F8040B42F811
:1042DC00040B8B42F9D1002314224449444800F0CA
:1042EC00C1FF2368013314E042493F4802F0F8FD56
:1042FC003D4B3E4A03F1140153F8040B42F8040BF6
:10430C008B42F9D1002314223849394800F0AAFF16
:10431C00012323602B68002B4ED1FEE701F012F92C
:10432C00344401232246014601A801F01FFE01A9D5
:10433C00244801F096FA01A801F0B6F9214801F0E1
:10434C00A1F8002838D0224603CA2B4B2B4A186000
:10435C0059601C482A4901F060FA2A4A2A4919482E
:10436C0025E02A4903A800F0DDFD18B301F0EAF8B6
:10437C00344401232246014601A801F0F7FD01A9AE
:10438C000F4801F06EFA01A801F08EF90C4801F00B
:10439C0079F888B1224603CA1D4B1E4A1860596031
:1043AC0007481D4901F039FA1C4A1149044801F02B
:1043BC0034FA01E001353AE708B0BDE8F08100BFFE
:1043CC0068DC0320BCE30320DCDC032004DD0320D9
:1043DC00C8DC0320E0DC032050DC0320E4DC0320F9
:1043EC00E0DB032092720D00F0DC032070DC032074
:1043FC00B4E30320386F0D00A4E30320D8E30320BB
:10440C0094E30320C4E30320ACE3032084DC032007
:10441C00C0DC0320ACDC03209CE3032098DC0320ED
:10442C0038B5414C00F0C8F81025201D2A462060F4
:10443C00002102F024FD012323753C4A3C49A58050
:10444C0002232046E38002F06FFB3A48374A3A4990
:10445C003A4D00244FF6FF7384710481438104604C
:10446C00848002F061FB281900F0AAFC04F108001A
:10447C00284400F047FE04F12C002844543400F08A
:10448C0041FEB4F5D26FEED12D492E4800F0C0FD9F
:10449C002D492E4800F0BCFD2D492E4800F0B8FDEA
:1044AC002D492E4800F0B4FD2D492E4800F0B0FDEA
:1044BC002D492E4800F0ACFD2D4801F0BBFD1B4AE8
:1044CC002C492B4802F030FB2B4801F0B3FD174A66
:1044DC002849294802F028FB284801F0ABFD134A73
:1044EC002449264802F020FB254801F0A3FD0F4A81
:1044FC002049234802F018FB224801F02FF90B4AFF
:10450C002149204802F010FB204801F027F9074A06
:10451C001D491E4802F008FB1D4800F051FC1D48C7
:10452C00BDE8384000F04CBC50DC03204CDC0320D0
:10453C00F1400D00E4DC032009410D0004DD0320F3
:10454C003A6F0D00C8DC03205F6F0D0084DC032084
:10455C00846F0D00C4E30320A96F0D00D8E3032082
:10456C00CE6F0D0098DC0320F36F0D00ACDC032044
:10457C0094E30320A7560D00ACE303209CE3032037
:10458C00B4E30320BCE30320B5560D0068DC032024
:10459C00A4E30320C0DC032008B5024B1B689B6816
:1045AC00019308BD6802030008B5024B1B68DB6869
:1045BC00019308BD6802030008B5024B1B681B6819
:1045CC00019308BD2C02030008B5024B1B685B6805
:1045DC00019308BD1802030008B5024B1B68DB6889
:1045EC00019308BD1802030008B5024B1B685B69F8
:1045FC00019308BD1802030008B5024B1B689B68A9
:10460C00019308BD7802030008B5024B1B68DB6FF1
:10461C00019308BD7802030008B5034B1B68D3F85F
:10462C008430019308BD00007802030008B5034BE9
:10463C001B68D3F89830019308BD00007802030082
:10464C0008B5034B1B68D3F8B430019308BD0000C8
:10465C007802030008B5034B1B68D3F8BC300193F8
:10466C0008BD00007802030008B5034B1B68D3F8A3
:10467C00C430019308BD00007802030008B5034B59
:10468C001B68D3F8D830019308BD000078020300F2
:10469C0008B5034B1B68D3F8DC30019308BD000050
:1046AC007802030008B5034B1B68D3F8E030019384
:1046BC0008BD00007802030008B5034B1B68D3F853
:1046CC00E430019308BD00007802030008B5034BE9
:1046DC001B68D3F8F030019308BD0000780203008A
:1046EC0008B5034B1B68D3F8F430019308BD0000E8
:1046FC007802030008B5034B1B68D3F80031019313
:10470C0008BD00007802030008B5034B1B68D3F802
:10471C000431019308BD00007802030008B5024B78
:10472C001B689B68019308BD4802030008B5024B47
:10473C001B681B69019308BD4802030008B5024BB6
:10474C001B685B69019308BD4802030008B5024B66
:10475C001B685B6C019308BD4802030008B5024B53
:10476C001B689B6C019308BD4802030008B5024B03
:10477C001B68DB6C019308BD4802030008B5024BB3
:10478C001B685B6D019308BD4802030008B5024B22
:10479C001B685B69019308BD6402030008B5024BFA
:1047AC001B681B68019308BD3C02030008B5024B53
:1047BC001B68DB68019308BD3C02030008B5024B83
:1047CC001B681B69019308BD3C02030008B5024B32
:1047DC001B685B69019308BD3C02030008B5024BE2
:1047EC001B689B69019308BD3C02030008B5024B92
:1047FC001B68DB69019308BD3C02030008B5024B42
:10480C001B689B6A019308BD3C02030008B5024B70
:10481C001B681B68019308BD4C02030008B5024BD2
:10482C001B685B68019308BD4C02030008B5024B82
:10483C001B681B69019308BD4C02030008B5024BB1
:10484C001B685B69019308BD4C02030008B5024B61
:10485C001B689B69019308BD4C02030008B5024B11
:10486C001B68DB69019308BD4C02030008B5024BC1
:10487C001B681B6A019308BD4C02030008B5024B70
:10488C001B685B6B019308BD6002030008B5024B0B
:10489C001B681B6D019308BD6002030008B5024B39
:1048AC001B685B68019308BD2002030008B5034B2D
:1048BC001B68D3F88830019308BD00002002030068
:1048CC0008B5034B1B68D3F89430019308BD000066
:1048DC002002030008B5034B1B68D3F8A8300193E2
:1048EC0008BD00002002030008B5024B1B685B6882
:1048FC00019308BD4002030008B5024B1B689B687E
:10490C00019308BD4002030008B5024B1B68DB682D
:10491C00019308BD4002030008B5024B1B681B69DC
:10492C00019308BD4002030008B5024B1B685B698C
:10493C00019308BD4002030008B5024B1B689B693C
:10494C00019308BD4002030008B5024B1B68DB69EC
:10495C00019308BD4002030008B5024B1B681B6A9B
:10496C00019308BD4002030008B5024B1B681B6B8A
:10497C00019308BD4002030008B5024B1B685B6B3A
:10498C00019308BD4002030008B5024B1B68DB6BAA
:10499C00019308BD4402030008B5024B1B681B6859
:1049AC00019308BD1C02030008B5024B1B685B6831
:1049BC00019308BD1C02030008B5024B1B689B68E1
:1049CC00019308BD1C020300002211464068FFF74A
:1049DC00C3BF002211464068FFF7CEBF00224068DB
:1049EC00FFF7C2BF002281F001014068FFF7ACBFA6
:1049FC0000231A4619464068FFF79EBF00231A464B
:104A0C0019464068FFF790BF002211464068FFF737
:104A1C0083BF002211464068FFF76EBF00220221BF
:104A2C004068FFF771BF00231A464068FFF75CBF70
:104A3C00024B03225A60024A1A607047ECE30320CF
:104A4C0020700D0010B50446006818B1FFF7ACFFDC
:104A5C000023236010BD10B50446FFF7F3FF20467A
:104A6C0010BD38B5B1F9043083800B460D4653F8B0
:104A7C00062FC0F806209B8843810446FFF7E2FF0F
:104A8C002B6813B1236000232B60204638BD000037
:104A9C0038B50C460546FFF7D5FF44B12088FFF723
:104AAC007BFF286028B12288214602F0C2F9002041
:104ABC0038BD014838BD00BFFCFEFFFFF0B5304DDE
:104ACC000B7D04468BB00846AF1D13B30B681B79E6
:104ADC00FBB100224FF6FF7302A904300292ADF82D
:104AEC000C208DF80E20ADF81020ADF81230FFF729
:104AFC00F1FE0AAB00B253F81A2DADF80C009B88EE
:104B0C00A880C5F806200299BB802846FFF7C0FF95
:104B1C001CE02023002602931A4B00931A4903969B
:104B2C003346322002AAFFF7B1FE4FF6FF73ADF801
:104B3C00123002A94FF6F263114802968DF80E60FE
:104B4C00ADF81060ADF80C30FFF78BFF02A8FFF743
:104B5C0079FF00232360A380A37123814FF6FF7399
:104B6C006381B5F90430A3803B68C4F80630BB8878
:104B7C00638129682046FFF78BFF20460BB0F0BD00
:104B8C00F4E3032053700D004C700D0010B5094C6C
:104B9C0000204FF6FF732060A080A07120816381FC
:104BAC00FFF77CFE2046044A0449BDE8104001F0A2
:104BBC00BBBF00BFF4E303204CDC0320634A0D00B1
:104BCC0010B504460068FFF7EFFE204610BD10B587
:104BDC000446006808B1FFF7E7FE00232360A360DA
:104BEC00636010BD38B504460D4600680131FFF70F
:104BFC00E3FE10B184E82100012038BD10B5036834
:104C0C00044613B143688B4207D22046FFF7EAFFF4
:104C1C0020B1A3680BB922681370012010BD70B5C8
:104C2C000E46114604461546FFF7E8FF18B9204614
:104C3C00FFF7CDFF09E02A463146A560206802F057
:104C4C00F8F82268A3680021D154204670BD38B50D
:104C5C000023044603604360836003730D4639B13F
:104C6C00084602F045F9294602462046FFF7D7FFD1
:104C7C00204638BD38B505460C4641B1084602F011
:104C8C0037F9214602462846FFF7C9FF01E0FFF736
:104C9C009EFF284638BD70470020704770470020A3
:104CAC00704770470020704710B51421044601F07E
:104CBC0049FF204610BD10B51421044601F042FFF7
:104CCC00204610BD10B51421044601F03BFF2046D0
:104CDC0010BDFFF7DCB9FFF7DAB9FFF7D8B910B59B
:104CEC000446006808B1FFF739FD204610BD0000EE
:104CFC0030B58BB02023054600240293084B00935B
:104D0C0002AA2346074903940120FFF7BFFD286838
:104D1C000549008823462A46FFF79CFC0BB030BDA2
:104D2C00DB700D00D0700D004D620D0008B50A202F
:104D3C00024A0021FFF7A2FD08BD00BFE5450D00AA
:104D4C0010B5036804469B689847A368013BA360B1
:104D5C002BB923682046DB68BDE81040184710BD0E
:104D6C00A0F13003DAB2092A01D818467047A0F135
:104D7C006103052B01D857387047A0F14103052B6F
:104D8C0094BF37384FF0FF307047000010B5002348
:104D9C000370044B04461868FFF7E8FC01232370EA
:104DAC00204610BD08E4032010B5037804461BB15F
:104DBC00024B1868FFF7E2FC204610BD08E4032004
:104DCC00002202604260704708B582798B799A4262
:104DDC0006D1062202F01EF8B0FA80F0400908BD98
:104DEC00002008BD10B501230361054B024603F1F9
:104DFC00100153F8044B42F8044B8B42F9D110BD0F
:104E0C0070720D000B7C13F0FD0330B510D10361F3
:104E1C000D4B024603F1100453F8045B42F8045B9B
:104E2C00A342F9D10B8803730B881B12437330BD5B
:104E3C000123036101F11002034651F8044B43F8BE
:104E4C00044B9142F9D130BD70720D0010B50B6955
:104E5C00036101F11002034651F8044B43F8044B73
:104E6C009142F9D110BD10B50B460446B9B1012AD7
:104E7C0009D1034601F1100251F8040B43F8040B5D
:104E8C009142F9D108E0411E0F22985C01F8010F04
:104E9C00013AD2B2FF2AF8D10123236102E0102299
:104EAC0001F0EDFF204610BD38B504460D46FFF766
:104EBC0099FF002325732D0A23616573204638BDA5
:104ECC0010B50B69036101F11002034651F8044B54
:104EDC0043F8044B9142F9D110BD10B586B004468D
:104EEC00012201A8FFF7BFFF01A92046FFF7E8FF49
:104EFC0006B010BD10B586B0044601A8FFF7D4FF6C
:104F0C0001A92046FFF7DCFF06B010BD10B586B036
:104F1C00044601A8FFF776FF01A92046FFF7D0FF52
:104F2C0006B010BD08B502690B699A4206D1102271
:104F3C0001F070FFB0FA80F0400908BD002008BDF8
:104F4C000123F7B50361314B0E460546024603F1CA
:104F5C00100153F8040B42F8040B8B42F9D1002ECC
:104F6C0051D02421304601F0CBFF042810D000276B
:104F7C0010242421304601F0C3FFB84201D944BBB0
:104F8C0041E02C440023A5423DD004F8013DFAE752
:104F9C003078FFF7E5FE041E18DB7078FFF7E0FEB3
:104FAC00002813DB40EA04108DF80400B078FFF7FA
:104FBC00D7FE041E0ADBF078FFF7D2FE0028A1BF53
:104FCC0040EA04109DF8043028736B7300232B61A6
:104FDC0019E0F05DFFF7C4FE030612D4013C00019A
:104FEC0028552421304601F08BFF0137874208D227
:104FFC00F05DFFF7B5FE40B20028A2BF2B5D184351
:10500C0028550137B5E703B0F0BD00BF70720D0035
:10501C0038B504460D46FFF7E5FE20462946FFF756
:10502C008FFF204638BD38B5054601B112B90020B6
:10503C00286238BD1F2A28BF1F22144601F0F9FE32
:10504C002C62204638BDF0B58BB10024E51C8D4296
:10505C000FD8661C055D875D974205D12E44B14281
:10506C0007D31C60681CF0BD01352C44EEE71846D4
:10507C00F0BD0020F0BD2DE9F74304460E461D4659
:10508C001746002A3AD00A4601AB016AFFF7DBFF4C
:10509C009DF82830226A03BBF8B1961C2E44361AB0
:1050AC001F2E2BD8DDF8048008F10209C8EB020290
:1050BC00121A00EB080105EB090092B221442044BE
:1050CC0001F0C2FE6B1C04F808302A46394604EB8A
:1050DC00090001F0AEFE266210E0901C2B181F2B6D
:1050EC000CD86B1CA35422442062394656702044C1
:1050FC002A4601F09EFE226A2A442262206A03B0EC
:10510C00BDE8F0831FB50446034600F11F020020E2
:10511C0003F8010B93424FF00001F9D104AA0623C6
:10512C0002F8013D01232162009120461946FFF748
:10513C00A2FF204604B010BD2DE9F04F002585B02C
:10514C000646894617469A462C464FF01408316A93
:10515C008D422AD203AB4A46491B7019FFF773FFE5
:10516C00834610B3544520D2042803990CD129440A
:10517C007218631CD1789278019342EA012108FBE2
:10518C000470FFF7B7FE0AE012280AD10231294455
:10519C00631C314408FB04700193FFF79EFE019BD6
:1051AC001C46039B5B441D44D1E7204605B0BDE87B
:1051BC00F08F2DE9F04113460D4616460A460221A2
:1051CC000746FFF7B9FF4FF01408331A08FB0052DB
:1051DC00044603213846FFF7AFFF0444331B08FB9A
:1051EC00045206213846FFF7A7FF0444331B08FB83
:1051FC00045207213846FFF79FFF2044BDE8F08199
:10520C0038B500254FF6FF73044643800E2229461D
:10521C0005700571063001F032FE04F11400FFF741
:10522C00E1FD04F12800FFF7DDFD044904F13C0029
:10523C00FFF70DFDE5642565204638BD27730D008D
:10524C0010B58369C26903EBC2029342184606D0BB
:10525C00046824888C4203F10803F6D110BD0020A9
:10526C0010BD00002DE9F34180461F460E4669B380
:10527C0062B3F42A056828BFF42214462A78A2B136
:10528C002B79980707D500232246A889FFF7D8F970
:10529C00002802DA43E06FF07700D8F800502B7941
:1052AC00DA0618D5012F23D115E068884FF6FF7365
:1052BC0098420DD02B79590723D5012F21D0A989DC
:1052CC00009223463246FFF7E3F928E0154826E022
:1052DC006FF0D10023E09A0621D5022F1FD0A889A8
:1052EC0000232246314602B0BDE8F041FFF70CBA6C
:1052FC00A88900232246314602B0BDE8F041FFF7F1
:10530C00F9B91B0701D5022F02D16FF0770006E027
:10531C000023A989009332462346FFF7AFF902B068
:10532C00BDE8F081F2FEFFFF70B504680E462178EF
:10533C0086B000292ED162884FF6FF739A4229D08D
:10534C00238A53B318252A46684601F098FD012399
:10535C00ADF80030134BADF8025001930294638802
:10536C00ADF80C30238AADF80E30A389ADF81030AF
:10537C005EB123799A0644BF022305932379DB0699
:10538C0042BF059B43F00103059300216846FFF7DC
:10539C00A7F904E06FF0D10001E06FF0770006B0E0
:1053AC0070BD00BF8D550D000368D9641A65704738
:1053BC002DE9F0418AB020230E46029300252E4B96
:1053CC00009302AA2B462D4903950120FFF75EFAA4
:1053DC003368DC681F694FF01C0804EBC7070834FE
:1053EC00A4F108039F42326817D0ADF80A8054F834
:1053FC00083C9B8AADF8203054F8083CDB8AADF8A9
:10540C0022301088009533461D4A02A9FFF72CF96B
:10541C00002804F10804E3DA2AE09469D56900272E
:10542C0004EBC5050834A4F108039D421FD054F8C1
:10543C00083CDB89CBB11422002102A801F01FFD2E
:10544C0054F8083CD989336802AA188800971323AA
:10545C00FFF728F948B10AAB184402A900F8207CE0
:10546C0054F8080C3C30FFF705FC0834DBE700204F
:10547C000AB0BDE8F08100BFF7700D00D0700D00D0
:10548C0095600D00036818884FF6FF73C01A18BF9B
:10549C000120704702680B68C2F802304B68C2F8F2
:1054AC000630704710B50A6852F8023F0360536823
:1054BC00436010BD1FB502680B6812881B889A42A6
:1054CC000C460CD101466846FFF7ECFF214602A8BA
:1054DC00FFF7E8FF02A96846FFF776FC00B9002049
:1054EC0004B010BD10B504463420FEF7CEFD0146C5
:1054FC0068B10023036043608360C3600361436150
:10550C008361C361036243628362C362036321608C
:10551C0019B90A4A0A20FFF7B1F90020FFF76CF815
:10552C0020B1064A00210A20FFF7A8F900222168C1
:10553C000348FFF7CBF8204610BD00BFE5450D0032
:10554C00C1590D0010B50A4C2368DB070ED4204658
:10555C00FEF7A1FD50B10748FFF7C4FF2046FEF748
:10556C009FFD054A0549034801F0DEFA014810BDCC
:10557C0004E4032000E403204CDC032029570D0035
:10558C0070B50368093B012B8AB004460E4619D846
:10559C00FFF7D8FFA1880068FFF752FE024658B902
:1055AC0020230293084B0390009302AA0346074959
:1055BC003220FFF76BF905E0F56C1DB1336DE16836
:1055CC002069A8470AB070BD1A710D00D0700D008B
:1055DC0013B501A8FFF7DAFB0020FFF70DF804461E
:1055EC0001A8FFF7E1FB04EAE47002B010BD000073
:1055FC0030B58BB00D4601A81446FFF7C7FBB5B10B
:10560C00ACB1002202A90D480694029203920492B6
:10561C000792089209920595FEF7F6FF0028B8BF8D
:10562C0004460298A8BF079CFFF7BEF900E0044CA3
:10563C0001A8FFF7B9FB20460BB030BD2F5B0D0066
:10564C00F2FEFFFF0B68036013B15A6801325A6017
:10565C00704710B551F8043B044640F8043BFFF783
:10566C00F1FF23680BB9FFF761FB204610BD10B5A5
:10567C0051F8043B044640F8043BFFF7E3FF204697
:10568C0010BD10B50446006828B14368013B436067
:10569C000BB9FFF755FB204610BD10B5044604307E
:1056AC00FFF7EFFF204610BD10B504460430FFF79E
:1056BC00E8FF204610BD70B504684368054604EB4E
:1056CC00C306A64204D0201DFFF7DBFF0834F8E721
:1056DC002868FFF769F9284670BD70B504684368FF
:1056EC00054604EBC306A64204D0201DFFF7C9FFF4
:1056FC000834F8E72868FFF757F9284670BD10B54D
:10570C00046904F11800FFF7E8FF04F10C00FFF73F
:10571C00D2FF2046BDE81040FEF7B9BCF8B50468CE
:10572C000746C4B1A569E36905EBC306AE4204D0D4
:10573C00281DFFF7A6FF0835F8E7A069FFF734F935
:10574C0004F10C00FFF7C9FF2046FFF7B4FF34212A
:10575C00204601F0F7F93846F8BD000073B5002576
:10576C000560456006462420FEF78FFC044678B1A0
:10577C0003464FF6FF7223F8022BC0F802505D600F
:10578C008572C572C560056145618561C56105623B
:10579C00002314200193FEF778FC034628B1012264
:1057AC0042608260084A0260046102A8726840F894
:1057BC00042D73603460FFF764FF33680BB9FFF797
:1057CC00B5FA304602B070BDBC700D0038B50C682F
:1057DC0003689C4205460CD014B1636801336360C6
:1057EC00286828B14368013B43600BB9FFF7A8FA5E
:1057FC002C60284638BD10B502680B680446D06C86
:10580C0010B1D864126D1A65204651F8043B40F86B
:10581C00043BFFF7DBFF204610BD2DE9F043036886
:10582C009C69DE6987B00F46904604EBC606B4420D
:10583C00A14611D054F8081B01A81431FFF706FB40
:10584C00414601A8FFF76EFB05460028EFD04946FC
:10585C003846FFF7D0FF00E00025284607B0BDE82A
:10586C00F08310B551F8043B044640F8043BFFF7B5
:10587C00ADFF204610BD884270B515461AD990422E
:10588C0019D2A1F10806511A0439151F44182B1FFF
:10589C009E4225D0042C07D055F8043C44F8043C17
:1058AC0029462046FFF7CEFE2846FFF7EAFE083DC4
:1058BC00083CECE714D00C1D061D231F9D420FD095
:1058CC00042E07D054F8043C46F8043C21463046DC
:1058DC00FFF7B8FE2046FFF7D4FE08340836ECE795
:1058EC0070BD2DE9F041046843680546884604EB19
:1058FC00C307A74218D041462046FFF7DBFD0646FA
:10590C0008B90834F5E78CB1201DFFF7BAFE2B68F7
:10591C006A6804F1080103EBC2022046FFF7ABFFF3
:10592C006B68013B6B6002E0002600E026463046C7
:10593C00BDE8F081F7B5044651F8043B4768009385
:10594C0001A8FFF77FFE6668A3689E4214DB013650
:10595C00002E0BDDF000FFF71FF8054618B394E896
:10596C00060001EBC202FFF786FF00E0002520686D
:10597C00FFF71AF82560A6602668626806EBC70573
:10598C0006EBC202294605F10800FFF774FF35B19A
:10599C00009B46F8373001A9281DFFF753FE6368BA
:1059AC0001336360012501A8FFF76BFE284603B0A5
:1059BC00F0BD00002DE9F04104468EB003A80D4661
:1059CC00FFF7E4F92368032B02D0042B42D087E0C5
:1059DC0004A8FFF7C3FE049B22891A80626804990D
:1059EC0052F8083FC1F802305368C1F8063007A8D6
:1059FC00049B069305A9FFF725FE06A905F11800DF
:105A0C00FFF798FF044607A8FFF73BFE20230693F9
:105A1C0074B9364B009306AA2346354907943220B5
:105A2C00FEF734FF049B21461888FEF7FFFD0DE0BE
:105A3C00304A0092002306AA2D4907930120FEF755
:105A4C0025FF6B6A13B1E96A04A8984705A8FFF70C
:105A5C0018FE45E021892846FFF7F2FB074600288F
:105A6C003ED00468A369E1694FF6FF72228003EB14
:105A7C00C101994203D053F8080B4280F9E7E6685C
:105A8C00236906EBC308B04504D0301DFFF7F9FDC0
:105A9C000836F8E700232361A669E36906EBC3081F
:105AAC00B04504D0301DFFF7ECFD0836F8E70023B5
:105ABC00E361A372E372AB6A13B1296B3846984762
:105ACC0020230D4A069300920023094907930120D5
:105ADC0006AAFEF7DBFE394605F11800FFF701FFB9
:105AEC0003A8FFF761F90EB0BDE8F08132710D002B
:105AFC00D0700D0058710D0075710D0038B50D1E6C
:105B0C00044606DD542169430068FEF755FF20B9B1
:105B1C0038BD0068FEF748FF00202060A56001201A
:105B2C0038BD70B55426C0B0054632460C4601A8A7
:105B3C00002101F0A4F903A8FFF7E4FA0CA8FFF781
:105B4C00E1FA2A4601AB52F8100F5168EA8903C3F7
:105B5C002B78A9688DF854300CA8FFF764FAAA8941
:105B6C00696803A8FFF75FFAA5691DB1E16901A88F
:105B7C00A8473CE0E06898B163692269934239D246
:105B8C005A1C626106FB0300512201A901F051F974
:105B9C00626923699A422DD32846FEF73DFD29E020
:105BAC00324601A916A801F044F9324616A92BA8D1
:105BBC00656801F03EF9A3689D4204DB691C204630
:105BCC00FFF79CFFB0B163682268542606FB0525DD
:105BDC0006FB0322521B2946A81901F035F932465F
:105BEC002BA9284601F025F96368013363606369CA
:105BFC000133636140B070BD8842F8B506460C466F
:105C0C00154614D9904213D2A2F108056C1AA1F1D1
:105C1C0008070444AF4218D01CB129462046FFF7B0
:105C2C0026FD281DFFF72DFD083D083CF2E70CD0A2
:105C3C00AC420AD01EB121463046FFF718FD201D9C
:105C4C00FFF71FFD08340836F2E7F8BD70B50E1EDD
:105C5C0005460BDDF000FEF79FFE044670B195E89B
:105C6C00060001EBC202FFF7C7FF00E00024286822
:105C7C00FEF79AFE2C60AE60012070BD70BD2DE960
:105C8C00F04100230360436083600E4649689942EB
:105C9C00044613DDFFF7DAFF80B1356873682768B7
:105CAC0005EBC308454507D01FB129463846FFF719
:105CBC00DEFC08350837F5E7736863602046BDE8FD
:105CCC00F08138B50B689B7A05460C4633B908460B
:105CDC00FFF70EF810B9236801229A722168284642
:105CEC000C31FFF7CCFF284638BD73B50446456828
:105CFC006846FFF7BCFC6168A368994205DB01317B
:105D0C002046FFF7A3FF064698B12368626803EBB1
:105D1C00C50503EBC202294605F10800FFF76CFF2D
:105D2C001DB169462846FFF7A2FC63680133636026
:105D3C00012601A8FFF7A5FC304602B070BD8842D1
:105D4C00F8B506460C46154614D9904213D2A2F16A
:105D5C0008056C1AA1F108070444AF4218D01CB115
:105D6C0029462046FFF775FC281DFFF78AFC083DE5
:105D7C00083CF2E70CD0AC420AD01EB121463046AA
:105D8C00FFF767FC201DFFF77CFC08340836F2E7B0
:105D9C00F8BD70B50E1E05460BDDF000FEF7FCFDE0
:105DAC00044670B195E8060001EBC202FFF7C7FF8D
:105DBC0000E000242868FEF7F7FD2C60AE6001209F
:105DCC0070BD70BD2DE9F04100230360436083601A
:105DDC000E4649689942044613DDFFF7DAFF80B19D
:105DEC0035687368276805EBC308454507D01FB1B4
:105DFC0029463846FFF72DFC08350837F5E7736858
:105E0C0063602046BDE8F08130B50B689B7A85B0A5
:105E1C0005460C462BB901A8FFF753FF01A8FFF765
:105E2C004AFC2368DB7A3BB9214601A8FFF7C0FA8C
:105E3C0010B923680122DA72216828461831FFF75D
:105E4C00C1FF284605B030BD2DE9F0430D4693B097
:105E5C004FF01808174606464246002104A81C4677
:105E6C0001F00DF869682868079702AB03C34FF07F
:105E7C00010905AB83E80300ADF81090ADF8128072
:105E8C00FFF760FB344B0893FFF75CFB00220368C1
:105E9C003168099304A8FEF70FFC074620B133685C
:105EAC004FF6FF721A8053E029463046FFF7F2FA9C
:105EBC00FFF748FB3146036812AD03F1180851F89F
:105ECC00043B45F8203D0BA8FFF7BCFB2946404698
:105EDC00FFF730FD80460BA8FFF7D3FB20230A9376
:105EEC00B8F1000F14D11D4B00932A4643461C49B0
:105EFC00CDF82C803220FEF7C9FC33684146188857
:105F0C00FEF794FB336817484FF6FF721A801FE0B8
:105F1C00154B00932A463B4611490B974846FEF712
:105F2C00B5FCA4B131462846FFF76EFF0A9C0B9BCB
:105F3C0004EBC306A64205D020460121FFF7F4F975
:105F4C000834F7E72846FFF7C8FB002000E020469E
:105F5C0013B0BDE8F08300BFC1590D0094710D0062
:105F6C00D0700D00FCFEFFFFB0710D0070B5044643
:105F7C0015461E46FFF7F2FB334600222946204603
:105F8C00FFF762FF204670BD73B50446456868464E
:105F9C00FFF75FFB6168A368994205DB013120467E
:105FAC00FFF7F7FE064698B12368626803EBC50558
:105FBC0003EBC202294605F10800FFF7C0FE1DB134
:105FCC0069462846FFF745FB636801336360012689
:105FDC0001A8FFF756FB304602B070BD10B5044661
:105FEC00406808B1FEF753F8204610BD07B50369A9
:105FFC000C308DE8090003F13C00FEF7E1FD68462A
:10600C00FFF7ECFF03B05DF804FB000038B500238C
:10601C000446036014200D46FEF737F828B101231F
:10602C0043608360024B036005612060204638BDED
:10603C0084700D0070B5002586B00560456004467F
:10604C005420FEF722F8CDF810D00646059008B182
:10605C00FFF7D6F8314601AB02AA03A80595FFF766
:10606C00D5FF039B62682660636003A80392FFF769
:10607C0008FB04A8FFF7B2FF23680BB9FEF756FE26
:10608C00204606B070BD00002DE9F041DFF8048118
:10609C008CB005460F4600262B689E4275D202A88E
:1060AC00FFF7C8FF029B2A895A806B6802982A2442
:1060BC007443234414305B7E13F0020F1EBF10F8A0
:1060CC00103C43F0020300F8103C6B6823445B7EE9
:1060DC005B0742BF10F8103C43F0040300F8103C7F
:1060EC006B6823445B7E190742BF10F8103C43F0E9
:1060FC00080300F8103C6B6823445B7EDA0642BF51
:10610C0010F8103C43F0100300F8103C6B6823446B
:10611C005B7E9B0642BF10F8103C43F0200300F856
:10612C00103C696821440431FEF7F0FE6A68029B5A
:10613C00144402A9E28B1A81228C5A81628C9A81B6
:10614C00A28CDA81E28C1A82228D5A82386800F194
:10615C00180404A8FFF77DFA204604A9FFF714FFE2
:10616C00044605A8FFF78DFA54B920230493CDF803
:10617C000080234604AA064905943220FEF786FBCC
:10618C0003A8FFF77EFA013686E70CB0BDE8F08174
:10619C00D0700D00CD710D0010B50446406808B1EB
:1061AC00FDF775FF204610BD07B503690C308DE86F
:1061BC0009006846FFF7F0FF03B05DF804FB000030
:1061CC0038B500230446036014200D46FDF75DFF2F
:1061DC0028B1012343608360024B0360056120609A
:1061EC00204638BDA0700D0070B5002586B0056046
:1061FC00456004461820FDF748FFCDF810D0064640
:10620C00059018B1FEF7EEFDB582F582314601AB73
:10621C0002AA03A80595FFF7D3FF039B62682660CB
:10622C00636003A80392FFF72CFA04A8FFF7B4FFEE
:10623C0023680BB9FEF77AFD204606B070BD00004E
:10624C002DE9F041DFF880808CB006460F46002522
:10625C0033689D4233D202A8FFF7C6FF1C24716835
:10626C0002986C4321440431FEF750FE7368029A85
:10627C00234402A91B8B938273681C44638BD382C7
:10628C00386800F10C0404A8FFF7F1F9204604A9C2
:10629C00FFF72BFD044605A8FFF7F3F954B92023AB
:1062AC000493CDF80080234604AA064905943220B5
:1062BC00FEF7ECFA03A8FFF7E4F90135C8E70CB0D8
:1062CC00BDE8F081D0700D00F9710D0010B5064CD1
:1062DC00002320462360FEF739FA2046034A04497E
:1062EC00BDE8104000F020BC08E403204CDC032087
:1062FC00EB4C0D00F8B506460D468F180024BD4238
:10630C000CD0336815F8011B9B6830469847002861
:10631C0001DB0444F3E7002C08BF04462046F8BD1B
:10632C0070B505460C46084649B100F0E1FD2B68F6
:10633C00024621462846DB68BDE87040184770BD10
:10634C0003689B68184730B58BB00B4600218DF85D
:10635C002410012A98BF0A220DF12304B3FBF2F595
:10636C0005FB123303F0FF03092B94BF3033373393
:10637C00DBB2214604F801392B46002DEED1FFF794
:10638C00CFFF0BB030BD0000014B024A1A607047C2
:10639C000CE40320F3720D00024B1A68024B1A60D6
:1063AC00704700BFE4DB032010E4032010B58368C2
:1063BC00044613B1032201469847204610BD10B580
:1063CC000446FFF7F3FF204610BD00000348044AC3
:1063DC0004490023836000F0A7BB00BF14E4032032
:1063EC004CDC0320CB630D0008B50C4B33B100F033
:1063FC0057F903681B699847002809DC084B63B1FF
:10640C0000F0CCF903681B699847002803DC08BD31
:10641C00AFF30080F2E7AFF3008008BD000000008E
:10642C000000000008B5FFF7DFFFFEF7DDF8014BB9
:10643C00186008BD48E703200248034A0349121AB2
:10644C0000F0F7BC00F4032004F4032040750D00A9
:10645C0007B5002300931A466FF07701FEF730FA68
:10646C0003B05DF804FB000007B543880A2B08D085
:10647C00502B09D1094B1B683BB103B05DF804EB01
:10648C001847FFF7E5FF06E0002300931A466FF06C
:10649C007701FEF715FA03B05DF804FB24E4032042
:1064AC0038B5104C104D2368AB42104B0CBF012279
:1064BC0000221A7002D0FFF7BFFF2560FEF784F8A8
:1064CC00044600F0E5FC0A4B13B12046AFF3008004
:1064DC0000210748FEF758FA00210648BDE838406D
:1064EC00FEF7E4B900F403201E1C279A28E40320CD
:1064FC000000000075640D00704710B518210446AB
:10650C0000F020FB204610BDF0B5037D062B8DB0AE
:10651C000E4600F104074FF0000402D000F108050C
:10652C0018E00CAD394605F8304D2F232A460A20C9
:10653C00FEF72CF9284600F0DBFC33680246DB68DA
:10654C002946304698470FE024B12E213046FFF7FC
:10655C00F7FE044415F8011D0A223046FFF7F3FE3E
:10656C00BD420444F0D120460DB0F0BD10B5054B32
:10657C000446112240F8043B002100F080FC204628
:10658C0010BD00BF94730D000346074A10B543F8C5
:10659C00042B01F1100251F8044B43F8044B9142C7
:1065AC00F9D10A781A7010BD94730D0010B59DF8CE
:1065BC00084044EA032343EA024242EA016104230D
:1065CC004160037510BD37B50D788B784A78C97862
:1065DC0000912946FFF7EAFF03B030BD41747047C4
:1065EC00704708B50021007CFEF730F930EA200036
:1065FC0028BF4FF0FF3008BD08B50121007CFEF725
:10660C0025F930EA200028BF4FF0FF3008BD08B54F
:10661C00007CFEF713F920EAE07008BD08B5007C99
:10662C00FEF704F920EAE07008BD007CFEF71EB905
:10663C0010B51421044600F085FA204610BD38B57B
:10664C000446007C0D46FEF7F9F8002801DC607C5E
:10665C0028B12946207CFEF701F920EAE07038BD0C
:10666C0010B50446002363604FF47A73A360054BA6
:10667C00236001230846217463741146FEF7C6F8A3
:10668C00204610BDA8730D000022007CFEF7C6B892
:10669C0010B514220446002100F0F1FB204610BD79
:1066AC0030B50E4D87B001A8FFF7F2FF296811F045
:1066BC00010410D12846FDF7EEFC60B101AA214679
:1066CC000748FFF7CDFF2846FDF7EAFC054A0649C7
:1066DC00034800F029FA024807B030BD2CE403202F
:1066EC0030E403204CDC0320ED650D007047417451
:1066FC00704708B5007CFEF781F820EAE07008BD11
:10670C0008B5007CFEF75AF820EAE07008BD08B521
:10671C00007CFEF763F830EA200028BF4FF0FF3012
:10672C0008BD08B5007CFEF751F830EA200028BF00
:10673C004FF0FF3008BD007CFEF758B810B514219F
:10674C00044600F0FFF9204610BD70B5457C0446A8
:10675C000E4625B9007CFEF751F8002805DD3146C0
:10676C00207CBDE87040FEF721B8284670BD0000C3
:10677C0010B5044608461146002262604FF47A7246
:10678C00A260054A22600122207462741A46FEF748
:10679C0005F8204610BD00BFD8730D0038B50C4D60
:1067AC00296811F0010411D12846FDF774FC68B179
:1067BC00084A094B09482146FFF7DAFF2846FDF73E
:1067CC006FFC074A0749054800F0AEF9034838BD8D
:1067DC00DCE40320E0E4032058E4032044E4032039
:1067EC004CDC0320F9660D00002211464068FEF7D0
:1067FC00B3B8002211464068FEF7BEB800224068CC
:10680C00FEF7B2B8002281F001014068FEF79CB897
:10681C0000231A4601214068FEF78EB800231A4661
:10682C0019464068FEF780B8002211464068FEF712
:10683C0073B8002211464068FEF75EB800220221B0
:10684C004068FEF761B800231A464068FEF74CB862
:10685C0038B5054688B104684CB1A3681BB1032256
:10686C002146204698471021204600F06BF9284617
:10687C001421BDE8384000F065B938BD10B103688B
:10688C005B681847704710B503680446BBB158687D
:10689C00FDF744FF78B923685A7C12B95868FDF7A4
:1068AC0045FF23685868FDF749FF206800232360E3
:1068BC0028B1FFF7CDFF206808B1FFF7C9FF2046CC
:1068CC0010BD38B50446D0F8C40108B1FDF7E1FBA2
:1068DC00D4F8C00108B1FDF741FFD4F8BC5135B173
:1068EC002846FFF7D0FF0421284600F02BF920683A
:1068FC0008B1FFF7C3FF204638BD000010B5044BAC
:10690C00044640F8083BFFF7DCFF204610BD00BFF3
:10691C0008740D0038B50E4C0E4B23600025022375
:10692C0004F5E4706360A560C4F8C451C4F8C851A0
:10693C00FDF70CFF084BC4F8CC5184F8D051236000
:10694C002046064A0649BDE8384000F0EDB800BFC5
:10695C0064E5032070740D0008740D004CDC0320FA
:10696C0009690D00002211464068FDF7D5BF0022D1
:10697C0011464068FDF7F0BF002211464068FDF754
:10698C00FBBF00224068FDF7EFBF002281F0010140
:10699C004068FDF7D9BF00231A4619464068FDF739
:1069AC00CBBF00231A4619464068FDF7BDBF002235
:1069BC0011464068FDF7A0BF002202214068FDF798
:1069CC00A3BF00231A464068FDF78EBF024B04227A
:1069DC005A60024A1A60704738E703203C740D0075
:1069EC0000231A464068FDF77FBF00220221406851
:1069FC00FDF78ABF002211464068FDF77DBF0022DB
:106A0C0011464068FDF788BF00231A4619464068B6
:106A1C00FDF78ABF00231A4619464068FDF78CBF64
:106A2C00002281F001014068FDF78EBF0022406812
:106A3C00FDF79ABF002211464068FDF79DBF00226A
:106A4C0011464068FDF788BF2DE9F043002495B04E
:106A5C0016460D460746FFF789FD214620220CA855
:106A6C00009400F00CFA40230C9321466B460CAAC0
:106A7C003046FDF799FD0446002844D10246012119
:106A8C006868FDF749FF0221804622466868FDF7D9
:106A9C0043FF009E81462146002E34D0002932D17E
:106AAC007368022B02D00A2B09D02AE0B8F1000F30
:106ABC0027D0716938460431FFF785FD20E0B9F124
:106ACC00000F1ED07469112201A800F0D8F906231A
:106ADC008DF8143001AD04F10803183418685968A6
:106AEC002A4603C20833A3421546F7D101A906A8CA
:106AFC0007ADFFF749FD0FCD3C1D0FC42B6823706C
:106B0C000121F669C8E70098FDF746FD384615B037
:106B1C00BDE8F083024B034A1A6000225A607047AA
:106B2C0040E7032070740D000B460146184600F038
:106B3C0063B90000024B1868BFF35F8F704700BF4A
:106B4C004CE70320FDF7A3BA10B5002814BF044688
:106B5C0001242046FDF720FF20B9FFF7EBFF08B119
:106B6C008047F6E710BD0000184B1A68D1075CBFD0
:106B7C0001221A60164B1A68D2075CBF01221A60F8
:106B8C00144B1A68D0075CBF01221A60124B1A68AA
:106B9C00D1075CBF01221A60104B1A68D2075CBF88
:106BAC0001221A600E4B1A68D0075CBF01221A60D2
:106BBC000C4B1A68D1075CBF01221A600A4B1A6889
:106BCC00D2075CBF01221A60704700BF6CE703203C
:106BDC0068E7032064E7032060E703205CE70320F9
:106BEC0058E7032054E7032050E70320244B1A688E
:106BFC00D0075CBF01221A60224B1A68D1075CBF18
:106C0C0001221A60204B1A68D2075CBF01221A605D
:106C1C001E4B1A68D0075CBF01221A601C4B1A6805
:106C2C00D1075CBF01221A601A4B1A68D2075CBFED
:106C3C0001221A60184B1A68D0075CBF01221A6037
:106C4C00164B1A68D1075CBF01221A60144B1A68E4
:106C5C00D2075CBF01221A60124B1A68D0075CBFC6
:106C6C0001221A60104B1A68D1075CBF01221A600E
:106C7C000E4B1A68D2075CBF01221A60704700BF26
:106C8C009CE7032098E7032094E7032090E7032078
:106C9C008CE7032088E7032084E7032080E70320A8
:106CAC007CE7032078E7032074E7032070E70320D8
:106CBC00244B1A68D0075CBF01221A60224B1A6859
:106CCC00D1075CBF01221A60204B1A68D2075CBF47
:106CDC0001221A601E4B1A68D0075CBF01221A6091
:106CEC001C4B1A68D1075CBF01221A601A4B1A6838
:106CFC00D2075CBF01221A60184B1A68D0075CBF20
:106D0C0001221A60164B1A68D1075CBF01221A6067
:106D1C00144B1A68D2075CBF01221A60124B1A6816
:106D2C00D0075CBF01221A60104B1A68D1075CBFF8
:106D3C0001221A600E4B1A68D2075CBF01221A603E
:106D4C00704700BFCCE70320C8E70320C4E703204B
:106D5C00C0E70320BCE70320B8E70320B4E7032017
:106D6C00B0E70320ACE70320A8E70320A4E7032047
:106D7C00A0E70320184B1A68D1075CBF01221A60E8
:106D8C00164B1A68D2075CBF01221A60144B1A68A2
:106D9C00D0075CBF01221A60124B1A68D1075CBF86
:106DAC0001221A60104B1A68D2075CBF01221A60CC
:106DBC000E4B1A68D0075CBF01221A600C4B1A6884
:106DCC00D1075CBF01221A600A4B1A68D2075CBF5C
:106DDC0001221A60704700BFECE70320E8E70320AC
:106DEC00E4E70320E0E70320DCE70320D8E70320F7
:106DFC00D4E70320D0E7032010B5054C13462CB183
:106E0C000A4601460220AFF3008010BD204610BD9B
:106E1C000000000010B501390244904207D010F870
:106E2C00013B11F8014FA342F7D0181B10BD0020F5
:106E3C0010BD10B5431E0A44914204D011F8014B09
:106E4C0003F8014FF8E710BD884210B501EB0203BF
:106E5C0001D8421E0BE09842FBD28118D21AD342C1
:106E6C0004D013F8014D01F8014DF8E710BD99421B
:106E7C0004D011F8014B02F8014FF8E710BD0244A1
:106E8C000346934202D003F8011BFAE77047000057
:106E9C0038B5124B1C68A36B0546D3B91820FDF707
:106EAC007BFD43F20E33A06303804AF6CD3343805F
:106EBC0041F2342383804EF26D63C3804DF6EC6354
:106ECC000381052343810B23838101220023C0E925
:106EDC000423A36B00221D615A6138BD48DC0320DA
:106EEC00034611F8012B03F8012B002AF9D1704746
:106EFC00034613F8012B002AFBD1181A01387047EE
:106F0C0010B5034601448B4204D01A785C1C0AB1BC
:106F1C002346F8E7181A10BD1D400D0059400D000E
:106F2C0085400D0089400D00000000003200364500
:106F3C003430303030312D423541332D46333933F6
:106F4C002D453041392D453530453234444343418C
:106F5C0039450037453430303030312D42354133EE
:106F6C002D463339332D453041392D453530453299
:106F7C0034444343413945003645343030303032A7
:106F8C002D423541332D463339332D453041392D82
:106F9C004535304532344443434139450036453458
:106FAC0030303030332D423541332D463339332D8B
:106FBC00453041392D453530453234444343413910
:106FCC00450037453430303030322D423541332D89
:106FDC00463339332D453041392D45353045323422
:106FEC004443434139450037453430303030332D3C
:106FFC00423541332D463339332D453041392D45FA
:10700C0035304532344443434139450000000000DB
:10701C0000000000334A0D00294A0D001F4A0D00E4
:10702C00154A0D00094A0D00FD490D00F1490D00EE
:10703C00E9490D00DF490D00D5490D00556A0D00D9
:10704C00776972696E670053797374656D20736C20
:10705C0065657020636F6E66696775726174696FC0
:10706C006E20697320696E76616C69642E00000075
:10707C000000000000000000AF4C0D00B54C0D00EE
:10708C00F95F0D00DF4C0D00B14C0D00000000004D
:10709C0000000000A94C0D00C34C0D00B5610D00A3
:1070AC00E34C0D00AB4C0D00000000000000000094
:1070BC00A34C0D00D14C0D000B570D00E74C0D00EF
:1070CC00A54C0D00776972696E672E626C65005372
:1070DC007461727420646973636F766572696E672C
:1070EC002073657276696365732E005374617274D4
:1070FC0020646973636F766572696E67206368617B
:10710C007261637465726973746963732E00506580
:10711C00657220646576696365206973206D697397
:10712C0073696E6721004661696C656420746F2019
:10713C00617070656E6420706565722043656E7455
:10714C0072616C206465766963652E00436F6E6EA8
:10715C0065637465642062792043656E7472616C3A
:10716C00206465766963652E00446973636F6E6E87
:10717C0065637465642062792072656D6F74652037
:10718C006465766963652E0043616E6E6F74206171
:10719C006464206E6577207065657220646576691D
:1071AC0063652E004E657720706572697068657234
:1071BC00616C20697320636F6E6E65637465642EF9
:1071CC00004661696C656420746F20617070656E37
:1071DC006420646973636F766572656420636861AB
:1071EC0072616374657269737469632E00466169B8
:1071FC006C656420746F20617070656E64206469C6
:10720C0073636F7665726564207365727669636506
:10721C002E004661696C656420746F206170706526
:10722C006E64206C6F63616C20636861726163745F
:10723C00657269737469632E004475706C6963615F
:10724C0074656420636861726163746572697374D8
:10725C0069632063616E6E6F742062652061646483
:10726C0065642E00FB349B5F8000008000100000E2
:10727C0000000000626175640053657269616C0006
:10728C0053657269616C310074797065007061725C
:10729C00616D00636D6400696400686E64007374F2
:1072AC00726D0066696C74006C766C006164644885
:1072BC00616E646C65720072656D6F766548616EA7
:1072CC00646C657200656E756D48616E646C657298
:1072DC0073004A534F4E53747265616D4C6F67481F
:1072EC00616E646C657200617070002530313075B0
:1072FC0020005D20002564002C200028293A200065
:10730C00205B00636F6465203D2000256900646587
:10731C007461696C73203D20000D0A0066006C6E70
:10732C0000666E00636F64650064657461696C006F
:10733C006E6F6E6500747261636500696E666F00D6
:10734C007761726E006572726F720070616E696344
:10735C0000616C6C005A00252B3033643A253032B6
:10736C00750025592D256D2D25645425483A254D3C
:10737C003A2553257A0061736374696D65000000CA
:10738C00000000000000000015650D0005650D00F3
:10739C0007650D000000000000000000ED650D0009
:1073AC003D660D004B660D0001630D0029660D0056
:1073BC00EF650D0005660D0037660D001B660D00B0
:1073CC00E9650D000000000000000000F9660D00EA
:1073DC0049670D0057670D0001630D000D670D0027
:1073EC002F670D001B670D0043670D00FB660D003A
:1073FC00FF660D00000000000000000053680D0047
:10740C0049680D003F680D0035680D0029680D00B6
:10741C001D680D0011680D0009680D00FF670D0057
:10742C00F5670D00556A0D0000000000000000001B
:10743C00CF690D00C5690D00BB690D0071690D00A8
:10744C00AF690D00A3690D0097690D008F690D00E0
:10745C0085690D007B690D00556A0D000000000068
:10746C0000000000ED690D00F7690D00016A0D00C8
:10747C000B6A0D00156A0D00216A0D002D6A0D00B6
:10748C00396A0D00416A0D004B6A0D00556A0D00FA
:10749C0000000000000000000000000000000000E0
:1074AC0000000000000000000000000000000000D0
:1074BC0000000000000000000000000000000000C0
:1074CC0000000000000000000000000000000000B0
:1074DC0000000000000000000000000000000000A0
:1074EC000000000000000000000000000000000090
:1074FC0000000000430000002D440D003D4A0D002B
:10750C00994B0D00D9620D0095630D00A5630D001C
:10751C00D9630D0021690D00D9690D00216B0D0097
:10752C00756B0D00F96B0D00BD6C0D00816D0D00C0
:04753C00000000004B
:047540000000000047
:107544000100000082730D0000000000A0740D0013
:10755400C0740D00E0740D00000000000000000085
:10756400000000000000000000750D000000000095
:107574000000000000000000000000000000000007
:1075840000000000000000000000000000000000F7
:1075940000000000000000000000000000000000E7
:0C75A4000000000000000000E8DB0320F5
:1075B000FFFFFFFF00000102030405060708090A98
:1075C0000B0C0D0E0F101112131415161718191A93
:0875D0001B1C1D1E1F202800DA
:0475D800785634129B
:04000003D000401CCD
:00000001FF
