:02000002D0002C
:1040000000400D00146F0D00000006000C000501BB
:084010000401DE0500000000C0
:04401800BC680D0073
:10401C0009480A49884208B505D0094A824202D0AB
:10402C00121A02F0D2FB0748074A0021121A02F0BA
:10403C00F2FB014808BD00BFE0E20320846E0D00D6
:10404C0048E3032048E30320F0E7032070B501F0B8
:10405C00F3FE074C074BE41AA40800251E46A542A4
:10406C0004D056F8253098470135F8E770BD00BFED
:10407C007C6E0D00446E0D0000F068B808B500F0C1
:10408C0005F9BDE8084001F099BE00F0F7BB00F05F
:10409C00FDBB00F0FBBB0078B0FA80F04009704724
:1040AC00012303707047704738B50446006928B186
:1040BC0085680C2102F012FA2846F8E7204638BD34
:1040CC0010B50446006808B100F0E0FB204610BDB6
:1040DC000368D86820B183888B4201D08068F9E7E7
:1040EC00704700002DE9F041037D05460F4616464A
:1040FC003BB30121FFF7ECFF50B18389BB4204D1E4
:10410C0086731EE08388012BF6D080680028F9D1D5
:10411C000D49102002F0E4F9044688B14FF0100864
:10412C004246002102F077FB022363800123A4F8AE
:10413C000080A3802B69A360A781A6732C6100E08B
:10414C0028752846BDE8F081DC6D0D00F0B597B000
:10415C0001F072FF4FF4165101F062FF01F024F8E8
:10416C0001F068F801F020F8424A01460DA801F070
:10417C0073FC0DA801F0E3F801F016F83E4A014675
:10418C000DA801F069FC0DA801F0D9F80DA800F0FC
:10419C00F1FE3A4903A800F085FD03A908A800F038
:1041AC0081FD08A800F0C8FD044608A844B900F039
:1041BC00E1FD16AA022322F84E0D0321009406E01D
:1041CC0000F0DDFD002300930246102307210DA80B
:1041DC002B4D00F088FE00F0E7FF00220DA901F046
:1041EC005FF82B7D03B30123042128462B72FFF7C4
:1041FC006FFF064610B1234BC36015E02249102017
:10420C0002F06EF9044600282FD010273A463146AA
:10421C0002F001FB0223638004232780A3802B6917
:10422C00A360184BE3602C61012202211448FFF7B4
:10423C0059FF01220321FFF755FF037D0446BBB153
:10424C000C21FFF745FF054690B90F490C2002F0F1
:10425C0047F960B10C2302224560856003804280DF
:10426C00838023698360206102E02875DCE7207578
:10427C0017B0F0BD98E30320B8E303204CE3032010
:10428C0074E30320804F1200DC6D0D001FB500F0AD
:10429C008BFF01F022F8002840D0214901A800F042
:1042AC007FFB204BBDF808209A8004AA186852F8AE
:1042BC00061DC3F8061092885A811C4618B100F0EE
:1042CC00E5FA00232360019B13B1236000230193C3
:1042DC00019808B100F0DAFA2368FBB19A88012A38
:1042EC001CD19B89104A022B138003D0032B05D1C0
:1042FC000E4900E00E490F4802F0BEFA0D4B0E4A73
:10430C0003F1140153F8040B42F8040B8B42F9D15E
:10431C00002314220849094800F094FE04B010BD93
:10432C0074E303208CE30320B4E30320D0680D0076
:10433C00D26B0D00D4E30320A0E3032098E3032009
:10434C00F0B50E4691B000210446016041600BAD02
:10435C00194606A8174600F0A5FC1699284600F049
:10436C00A1FC10AA3B7802F82C3D189B0293179BDA
:10437C0001932046009506AB314601F0B9FA204670
:10438C0011B0F0BD2DE9F047374C384D384FDFF800
:10439C000C91DFF80C81DFF80CA190B000F096F8CE
:1043AC001026201D32462060002102F034FA012331
:1043BC0023752A4602232F49A6802046E38002F06B
:1043CC007FF82D482D4900244FF6FF732A46438170
:1043DC00847104810460848002F072F828493846A4
:1043EC0000F05EFD2749484600F05AFD264940463C
:1043FC0000F056FD8DF8146041460BAE06A800F097
:10440C0051FCDFF8A4803946304600F04BFC06AB7B
:10441C0005AA0294019400961C495046FFF790FFA0
:10442C002A464146504602F04BF80423494606A85A
:10443C008DF8143000F036FC39463046144F00F03D
:10444C0031FC144B019305AA06AB02940096124959
:10445C003846FFF775FF2A464146384602F030F8D9
:10446C0010B0BDE8F08700BF74E3032048E30320DD
:10447C004CE30320B5400D008CE30320CD400D0030
:10448C00D2680D00F7680D001C690D0041690D0024
:10449C00B8E30320B3400D0044690D00C0E30320D2
:1044AC0060E3032098E303204B530D0008B5024B47
:1044BC001B689B68019308BD6802030008B5024B9A
:1044CC001B68DB68019308BD6802030008B5024B4A
:1044DC001B681B68019308BD2C02030008B5024B36
:1044EC001B685B68019308BD1802030008B5024BFA
:1044FC001B68DB68019308BD1802030008B5024B6A
:10450C001B685B69019308BD1802030008B5024BD8
:10451C001B689B68019308BD7802030008B5024B29
:10452C001B681B6D019308BD7802030008B5024B94
:10453C001B689B6D019308BD7802030008B5024B04
:10454C001B681B6E019308BD7802030008B5034B72
:10455C001B68D3F89830019308BD00007802030063
:10456C0008B5034B1B68D3F8A830019308BD0000B5
:10457C007802030008B5034B1B68D3F8B4300193E1
:10458C0008BD00007802030008B5034B1B68D3F884
:10459C00D830019308BD00007802030008B5034B26
:1045AC001B68D3F8DC30019308BD000078020300CF
:1045BC0008B5034B1B68D3F8EC30019308BD000021
:1045CC007802030008B5034B1B68D3F8F030019355
:1045DC0008BD00007802030008B5034B1B68D3F834
:1045EC000031019308BD00007802030008B5034BAD
:1045FC001B68D3F80431019308BD00007802030056
:10460C0008B5024B1B689B68019308BD4802030068
:10461C0008B5024B1B681B69019308BD48020300D7
:10462C0008B5024B1B685B69019308BD4802030087
:10463C0008B5024B1B685B6C019308BD4802030074
:10464C0008B5024B1B689B6C019308BD4802030024
:10465C0008B5024B1B68DB6C019308BD48020300D4
:10466C0008B5024B1B685B6D019308BD4802030043
:10467C0008B5024B1B685B69019308BD640203001B
:10468C0008B5024B1B681B68019308BD3C02030074
:10469C0008B5024B1B68DB68019308BD3C020300A4
:1046AC0008B5024B1B681B69019308BD3C02030053
:1046BC0008B5024B1B685B69019308BD3C02030003
:1046CC0008B5024B1B689B69019308BD3C020300B3
:1046DC0008B5024B1B68DB69019308BD3C02030063
:1046EC0008B5024B1B689B6A019308BD3C02030092
:1046FC0008B5024B1B681B68019308BD4C020300F4
:10470C0008B5024B1B685B68019308BD4C020300A3
:10471C0008B5024B1B681B69019308BD4C020300D2
:10472C0008B5024B1B685B69019308BD4C02030082
:10473C0008B5024B1B689B69019308BD4C02030032
:10474C0008B5024B1B68DB69019308BD4C020300E2
:10475C0008B5024B1B681B6A019308BD4C02030091
:10476C0008B5024B1B685B6B019308BD600203002C
:10477C0008B5024B1B681B6D019308BD600203005A
:10478C0008B5024B1B685B68019308BD200203004F
:10479C0008B5034B1B68D3F88830019308BD0000A3
:1047AC002002030008B5034B1B68D3F89430019327
:1047BC0008BD00002002030008B5034B1B68D3F8AA
:1047CC00A830019308BD00002002030008B5024B7D
:1047DC001B685B68019308BD4002030008B5024BDF
:1047EC001B689B68019308BD4002030008B5024B8F
:1047FC001B68DB68019308BD4002030008B5024B3F
:10480C001B681B69019308BD4002030008B5024BED
:10481C001B685B69019308BD4002030008B5024B9D
:10482C001B689B69019308BD4002030008B5024B4D
:10483C001B68DB69019308BD4002030008B5024BFD
:10484C001B681B6A019308BD4002030008B5024BAC
:10485C001B681B6B019308BD4002030008B5024B9B
:10486C001B685B6B019308BD4002030008B5024B4B
:10487C001B68DB6B019308BD4402030008B5024BB7
:10488C001B681B68019308BD1C02030008B5024B92
:10489C001B685B68019308BD1C02030008B5024B42
:1048AC001B689B68019308BD1C0203000022114683
:1048BC004068FFF7C3BF002211464068FFF7CEBF28
:1048CC0000224068FFF7C2BF002281F0010140685E
:1048DC00FFF7ACBF00231A4619464068FFF79EBF8E
:1048EC0000231A4619464068FFF790BF0022114674
:1048FC004068FFF783BF002211464068FFF76EBF88
:10490C00002202214068FFF771BF00231A4640685D
:10491C00FFF75CBF024B03225A60024A1A607047D1
:10492C00E8E3032050690D0010B50446006818B187
:10493C00FFF7ACFF0023236010BD10B50446FFF752
:10494C00F3FF204610BD38B5B1F9043083800B4617
:10495C000D4653F8062FC0F806209B884381044669
:10496C00FFF7E2FF2B6813B1236000232B60204676
:10497C0038BD000038B50C460546FFF7D5FF44B1ED
:10498C002088FFF77BFF286028B12288214601F0A0
:10499C001CFF002038BD014838BD00BFFCFEFFFFE6
:1049AC00F0B5304D0B7D04468BB00846AF1D13B3EC
:1049BC000B681B79FBB100224FF6FF7302A9043080
:1049CC000292ADF80C208DF80E20ADF81020ADF849
:1049DC001230FFF7F1FE0AAB00B253F81A2DADF806
:1049EC000C009B88A880C5F806200299BB8028463D
:1049FC00FFF7C0FF1CE02023002602931A4B009304
:104A0C001A4903963346322002AAFFF7B1FE4FF63D
:104A1C00FF73ADF8123002A94FF6F26311480296FB
:104A2C008DF80E60ADF81060ADF80C30FFF78BFF11
:104A3C0002A8FFF779FF00232360A380A3712381D1
:104A4C004FF6FF736381B5F90430A3803B68C4F85B
:104A5C000630BB88638129682046FFF78BFF204610
:104A6C000BB0F0BDF0E3032083690D007C690D00F1
:104A7C0010B5094C00204FF6FF732060A080A07188
:104A8C0020816381FFF77CFE2046044A0449BDE87F
:104A9C00104001F015BD00BFF0E3032048E30320F4
:104AAC0047490D0010B504460068FFF7EFFE20469D
:104ABC0010BD10B50446006808B1FFF7E7FE0023EF
:104ACC002360A360636010BD38B504460D460068D2
:104ADC000131FFF7E3FE10B184E82100012038BD5D
:104AEC0010B50368044613B143688B4207D22046C5
:104AFC00FFF7EAFF20B1A3680BB9226813700120FD
:104B0C0010BD70B50E46114604461546FFF7E8FF7A
:104B1C0018B92046FFF7CDFF09E02A463146A560BB
:104B2C00206801F052FE2268A3680021D15420466F
:104B3C0070BD38B500230446036043608360037383
:104B4C000D4639B1084601F09FFE29460246204623
:104B5C00FFF7D7FF204638BD38B505460C4641B1A6
:104B6C00084601F091FE214602462846FFF7C9FF90
:104B7C0001E0FFF79EFF284638BD704700207047C4
:104B8C0070470020704770470020704710B5142103
:104B9C00044601F0A3FC204610BD10B514210446B8
:104BAC0001F09CFC204610BD10B51421044601F008
:104BBC0095FC204610BDFFF76ABAFFF768BAFFF7FD
:104BCC0066BA10B50446006808B1FFF739FD2046F7
:104BDC0010BD000008B50A20024A0021FFF7C0FDF5
:104BEC0008BD00BFF9440D0010B5036804469B686E
:104BFC009847A368013BA3602BB923682046DB6868
:104C0C00BDE81040184710BDA0F13003DAB2092AF4
:104C1C0001D818467047A0F16103052B01D857380D
:104C2C007047A0F14103052B94BF37384FF0FF308C
:104C3C007047000010B500230370044B044618683D
:104C4C00FFF706FD01232370204610BD08E4032066
:104C5C0010B5037804461BB1024B1868FFF700FD32
:104C6C00204610BD08E4032008B582798B799A425E
:104C7C0006D1062201F09AFDB0FA80F0400908BD79
:104C8C00002008BD10B501230361054B024603F15A
:104C9C00100153F8044B42F8044B8B42F9D110BD70
:104CAC00B06B0D0010B50B69036101F110020346E6
:104CBC0051F8044B43F8044B9142F9D110BD10B597
:104CCC000B460446B9B1012A09D1034601F1100281
:104CDC0051F8040B43F8040B9142F9D108E0411E42
:104CEC000F22985C01F8010F013AD2B2FF2AF8D1D9
:104CFC000123236102E0102201F08DFD204610BD3E
:104D0C0038B5054614461A46FFF7D9FF2C73240A0A
:104D1C006C73284638BD000008B502690AB9808951
:104D2C0003E01022034901F041FD003018BF0120BF
:104D3C0008BD00BFB06B0D000069704738B50C465C
:104D4C0014220021054601F066FD23692BB9627B14
:104D5C00237B43EA02232B800AE001232B7404F10A
:104D6C0010022B4654F8041B43F8041B9442F9D14F
:104D7C00284638BD427B007B40EA022070477047D2
:104D8C0010B50B69036101F11002034651F8044B95
:104D9C0043F8044B9142F9D110BD10B586B00446CE
:104DAC00012201A8FFF78BFF01A92046FFF7E8FFBE
:104DBC0006B010BD08B502690B699A4206D11022E3
:104DCC0001F0F4FCB0FA80F0400908BD002008BDE9
:104DDC000123F7B50361314B0E460546024603F13C
:104DEC00100153F8040B42F8040B8B42F9D1002E3E
:104DFC0051D02421304601F04FFD042810D000275B
:104E0C0010242421304601F047FDB84201D944BB9F
:104E1C0041E02C440023A5423DD004F8013DFAE7C3
:104E2C003078FFF7F1FE041E18DB7078FFF7ECFE0C
:104E3C00002813DB40EA04108DF80400B078FFF76B
:104E4C00E3FE041E0ADBF078FFF7DEFE0028A1BFAC
:104E5C0040EA04109DF8043028736B7300232B6117
:104E6C0019E0F05DFFF7D0FE030612D4013C0001FF
:104E7C0028552421304601F00FFD0137874208D216
:104E8C00F05DFFF7C1FE40B20028A2BF2B5D1843B6
:104E9C0028550137B5E703B0F0BD00BFB06B0D006E
:104EAC0038B504460D46FFF7EDFE20462946FFF7C0
:104EBC008FFF204638BDF0B58BB10024E51C8D4228
:104ECC000FD8661C055D875D974205D12E44B14213
:104EDC0007D31C60681CF0BD01352C44EEE7184666
:104EEC00F0BD0020F0BD2DE9F74304460E461D46EB
:104EFC001746002A3AD00A4601AB016AFFF7DBFFDE
:104F0C009DF82830226A03BBF8B1961C2E44361A41
:104F1C001F2E2BD8DDF8048008F10209C8EB020221
:104F2C00121A00EB080105EB090092B2214420444F
:104F3C0001F056FC6B1C04F808302A46394604EB89
:104F4C00090001F042FC266210E0901C2B181F2B6C
:104F5C000CD86B1CA3542244206239465670204452
:104F6C002A4601F032FC226A2A442262206A03B0EB
:104F7C00BDE8F0831FB50446034600F11F02002074
:104F8C0003F8010B93424FF00001F9D104AA062358
:104F9C0002F8013D01232162009120461946FFF7DA
:104FAC00A2FF204604B010BD73B50A460E4601ABF5
:104FBC00016A0446FFF77FFF054678B10198226A23
:104FCC002918121A521B2144204401F0FEFB236ABB
:104FDC005D1B256231462046FFF7E6FF02B070BD2F
:104FEC0038B500254FF6FF73044643800E22294640
:104FFC0005700571063001F00EFC04F11400FFF78A
:10500C0041FE04F12800FFF73DFE044904F13C0089
:10501C00FFF78FFDE5642565204638BD676C0D00F4
:10502C0010B58369C26903EBC2029342184606D0DD
:10503C00046824888C4203F10803F6D110BD0020CB
:10504C0010BD00002DE9F34180461F460E4669B3A2
:10505C0062B3F42A056828BFF42214462A78A2B158
:10506C002B79980707D500232246A889FFF782FAE7
:10507C00002802DA43E06FF07700D8F800502B7963
:10508C00DA0618D5012F23D115E068884FF6FF7387
:10509C0098420DD02B79590723D5012F21D0A989FE
:1050AC00009223463246FFF779FA28E0154826E0AD
:1050BC006FF0D10023E09A0621D5022F1FD0A889CA
:1050CC0000232246314602B0BDE8F041FFF78EBA0C
:1050DC00A88900232246314602B0BDE8F041FFF713
:1050EC007BBA1B0701D5022F02D16FF0770006E0C7
:1050FC000023A989009332462346FFF745FA02B0F4
:10510C00BDE8F081F2FEFFFF10B50A6852F8023FCD
:10511C0003605368436010BD1FB502680B681288AA
:10512C001B889A420C460CD101466846FFF7ECFFEF
:10513C00214602A8FFF7E8FF02A96846FFF794FD95
:10514C0000B9002004B010BD10B504463420FEF7A1
:10515C009CFF014668B10023036043608360C36019
:10516C00036143618361C361036243628362C3620F
:10517C000363216019B90A4A0A20FFF7F1FA0020EB
:10518C00FFF7C4F920B1064A00210A20FFF7E8FA1C
:10519C00002221680348FFF715FA204610BD00BF16
:1051AC00F9440D00A9550D0010B50A4C2368DB0716
:1051BC000ED42046FEF76FFF50B10748FFF7C4FF2F
:1051CC002046FEF76DFF054A0549034801F078F9C2
:1051DC00014810BD00E40320FCE3032048E3032056
:1051EC00BF530D0070B50368093B012B8AB0044610
:1051FC000E4619D8FFF7D8FFA1880068FFF710FFFB
:10520C00024658B920230293084B0390009302AA3C
:10521C00034607493220FFF7ABFA05E0F56C1DB1E8
:10522C00336DE1682069A8470AB070BD5A6A0D0059
:10523C00106A0D0013B501A8FFF7FCFC0020FFF766
:10524C0065F9044601A8FFF703FD04EAE47002B017
:10525C0010BD084609B90A4601E0096A0022FFF7A9
:10526C005DB910B50C4611B90A46084606E0012195
:10527C002046FFF799FE216A00222046BDE8104027
:10528C00FFF754B913B501A8FFF7D4FC0020FFF7C2
:10529C0055F9044601A8FFF7DBFC204602B010BD0F
:1052AC0073B505460C4601A81646FFF7C3FC21460C
:1052BC002846FFF7CEFF002808DB31462846FFF7CB
:1052CC00D0FF002802DB2846FFF7DCFF044601A8CC
:1052DC00FFF7BEFC204602B070BD0368D8690028F9
:1052EC00D4BF0020012070470B68036013B15A68CB
:1052FC0001325A60704710B551F8043B044640F82F
:10530C00043BFFF7F1FF23680BB9FFF763FC204662
:10531C0010BD10B551F8043B044640F8043BFFF7B0
:10532C00E3FF204610BD10B50446006828B1436861
:10533C00013B43600BB9FFF757FC204610BD10B57D
:10534C0004460430FFF7EFFF204610BD70B504682B
:10535C004368054604EBC306A64204D0201DFFF7A4
:10536C00E2FF0834F8E72868FFF790FA284670BD8A
:10537C0070B504684368054604EBC306A64204D026
:10538C00201DFFF7D0FF0834F8E72868FFF77EFAF6
:10539C00284670BD10B5046904F11800FFF7E8FF4A
:1053AC0004F10C00FFF7D2FF2046BDE81040FEF7D9
:1053BC006EBEF8B504680746C4B1A569E36905EB90
:1053CC00C306AE4204D0281DFFF7ADFF0835F8E741
:1053DC00A069FFF75BFA04F10C00FFF7C9FF204648
:1053EC00FFF7B4FF3421204601F078F83846F8BDB9
:1053FC0073B500250560456006462420FEF745FE82
:10540C00044678B103464FF6FF7223F8022BC0F81E
:10541C0002505D608572C572C5600561456185612C
:10542C00C5610562002314200193FEF72EFE03468E
:10543C0028B1012242608260084A0260046102A81D
:10544C00726840F8042D73603460FFF76CFF3368AA
:10545C000BB9FFF7BFFB304602B070BDEC690D0015
:10546C00884270B515461AD9904219D2A1F1080696
:10547C00511A0439151F44182B1F9E4225D0042C99
:10548C0007D055F8043C44F8043C29462046FFF765
:10549C002BFF2846FFF747FF083D083CECE714D0EC
:1054AC000C1D061D231F9D420FD0042E07D054F84F
:1054BC00043C46F8043C21463046FFF715FF2046D5
:1054CC00FFF731FF08340836ECE770BD2DE9F041E9
:1054DC00046843680546884604EBC307A74218D006
:1054EC0041462046FFF718FE064608B90834F5E792
:1054FC008CB1201DFFF717FF2B686A6804F10801B7
:10550C0003EBC2022046FFF7ABFF6B68013B6B60FD
:10551C0002E0002600E026463046BDE8F081F7B5F3
:10552C00044651F8043B4768009301A8FFF7DCFEE2
:10553C006668A3689E4214DB0136002E0BDDF0007A
:10554C00FFF79CF9054618B394E8060001EBC2027C
:10555C00FFF786FF00E000252068FFF797F925602C
:10556C00A6602668626806EBC70506EBC2022946F0
:10557C0005F10800FFF774FF35B1009B46F8373092
:10558C0001A9281DFFF7B0FE636801336360012594
:10559C0001A8FFF7C8FE284603B0F0BD2DE9F04185
:1055AC0004468EB003A80D46FFF744FB2368032B7B
:1055BC0002D0042B42D087E004A8FFF719FF049B0C
:1055CC0022891A806268049952F8083FC1F80230A7
:1055DC005368C1F8063007A8049B069305A9FFF78A
:1055EC0083FE06A905F11800FFF799FF044607A8EA
:1055FC00FFF799FE2023069374B9364B009306AA45
:10560C002346354907943220FFF7B2F8049B214614
:10561C001888FEF79BFF0DE0304A0092002306AA83
:10562C002D4907930120FFF7A3F86B6A13B1E96AC0
:10563C0004A8984705A8FFF776FE45E0218928467F
:10564C00FFF7EEFC074600283ED00468A369E16929
:10565C004FF6FF72228003EBC101994203D053F83D
:10566C00080B4280F9E7E668236906EBC308B045EE
:10567C0004D0301DFFF757FE0836F8E700232361EE
:10568C00A669E36906EBC308B04504D0301DFFF7EB
:10569C004AFE0836F8E70023E361A372E372AB6AB3
:1056AC0013B1296B3846984720230D4A0693009274
:1056BC00002309490793012006AAFFF759F8394638
:1056CC0005F11800FFF702FF03A8FFF7C1FA0EB0AF
:1056DC00BDE8F081726A0D00106A0D00986A0D0029
:1056EC00B56A0D008842F8B506460C46154614D925
:1056FC00904213D2A2F108056C1AA1F108070444D8
:10570C00AF4218D01CB129462046FFF702FE281DD7
:10571C00FFF709FE083D083CF2E70CD0AC420AD07A
:10572C001EB121463046FFF7F4FD201DFFF7FBFDAF
:10573C0008340836F2E7F8BD70B50E1E05460BDDD1
:10574C00F000FFF79BF8044670B195E8060001EBFA
:10575C00C202FFF7C7FF00E000242868FFF796F8A5
:10576C002C60AE60012070BD70BD73B504464568F9
:10577C006846FFF7CEFD6168A368994205DB0131ED
:10578C002046FFF7D9FF064698B12368626803EB01
:10579C00C50503EBC202294605F10800FFF7A2FF7D
:1057AC001DB169462846FFF7B4FD63680133636099
:1057BC00012601A8FFF7B7FD304602B070BD884244
:1057CC00F8B506460C46154614D9904213D2A2F1F0
:1057DC0008056C1AA1F108070444AF4218D01CB19B
:1057EC0029462046FFF787FD281DFFF79CFD083D45
:1057FC00083CF2E70CD0AC420AD01EB12146304630
:10580C00FFF779FD201DFFF78EFD08340836F2E70F
:10581C00F8BD70B50E1E05460BDDF000FFF72EF837
:10582C00044670B195E8060001EBC202FFF7C7FF12
:10583C0000E000242868FFF729F82C60AE600120F6
:10584C0070BD70BD73B5044645686846FFF753FDDF
:10585C006168A368994205DB01312046FFF7D9FF47
:10586C00064698B12368626803EBC50503EBC202D8
:10587C00294605F10800FFF7A2FF1DB1694628462D
:10588C00FFF739FD636801336360012601A8FFF758
:10589C004AFD304602B070BD10B50446406808B1F0
:1058AC00FEF7F5FB204610BD07B503690C308DE8FB
:1058BC00090003F13C00FFF7F5F86846FFF7ECFF31
:1058CC0003B05DF804FB000038B500230446036008
:1058DC0014200D46FEF7D9FB28B1012343608360E9
:1058EC00024B036005612060204638BDB4690D0091
:1058FC002DE9F04188B005461E46542000230F4682
:10590C00904604930593FEF7C0FBCDF818D00446DF
:10591C000790C0B198F80080FFF762FB394604F19C
:10592C003C0084F80480FFF717F90F9BE3643146C1
:10593C00109B236504F11400FFF722FA0E9904F171
:10594C002800FFF71DFA2146002601AB02AA03A886
:10595C000796FFF7B9FF039B059A039203A80593DB
:10596C000494FFF7E0FC06A8FFF796FF049B296858
:10597C00059A2B6008A86B6806916A6040F8043D94
:10598C0005960496FFF7CFFC05A8FFF7CCFC296819
:10599C0019B9034A0A20FEF7E3FE08B0BDE8F0810E
:1059AC00F9440D0010B50446406808B1FEF76FFBD2
:1059BC00204610BD07B503690C308DE80900684618
:1059CC00FFF7F0FF03B05DF804FB000038B50023CF
:1059DC000446036014200D46FEF757FB28B1012343
:1059EC0043608360024B036005612060204638BD34
:1059FC00D0690D00F0B5002687B0066046600446FD
:105A0C0018200F46FEF741FBCDF810D00546059047
:105A1C0038B1FFF737F939462846AE82EE82FFF7E8
:105A2C00AFF900232946059302AA01AB03A8FFF79F
:105A3C00CDFF039B62682560636003A80392FFF7A8
:105A4C0072FC04A8FFF7AEFF23680BB9FFF7C2F88E
:105A5C00204607B0F0BD00002DE9F04F1746A1B06D
:105A6C0080460AA80E46FFF7E5F83C682379002B20
:105A7C0000F0DE803368DD681B6905EBC30303931C
:105A8C0004F1140A04F1280B039BAB4223D0D5F884
:105A9C000090504609F11401FFF78CF9002800F032
:105AAC00CC8009F128015846FFF784F9002800F052
:105ABC00C480236823F47F41D9F8003023F47F435A
:105ACC00994240F0BA802023604A1593002300923B
:105ADC00169315AAA8E004F128094846FFF71CF90B
:105AEC0018B95B494846FFF758F933681D685B687D
:105AFC0005EBC30A5545494605D02868FFF75AF906
:105B0C0058BB0835F6E70BA8FFF774FF494615A8F4
:105B1C00FFF714F90B9A0023143215A90120FEF794
:105B2C001FFD002878D135680BA90DA8FFF7F1FBF4
:105B3C0028460DA9FFF719FE05460EA8FFF7F3FB43
:105B4C00002D69D03268556805F100531568013B8A
:105B5C000CA805EBC305FFF7E6FB04F11409484656
:105B6C00FFF7DAF868B93B4B39491A88013292B21F
:105B7C001A8015A80123FFF7C3F815A94846FFF7AB
:105B8C00FFF84FF02C0A5246002115A800F043FEF6
:105B9C000123494604A8ADF85430ADF856A0FFF7E0
:105BAC00CDF804AB18AA0DF1200C1868596896466C
:105BBC00AEE80300083363457246F6D11868CEF898
:105BCC00000023798DF858302B689B8AADF874301F
:105BDC00E36B17930022204B1E93A11D15A81F9455
:105BEC00FEF7E6FC20BB01232370346839460C34E5
:105BFC000DA8FFF780FB20460DA9FFF723FE0446F6
:105C0C000EA8FFF790FB9CB920230D93134B009328
:105C1C000E9423460DAA07E039464046FFF76BFB6E
:105C2C000CA8FFF780FB0AE00D493220FEF7A0FD1F
:105C3C0039464046FFF75FFB01E0083524E70AA828
:105C4C00FFF706F8404621B0BDE8F08F856B0D00DC
:105C5C00006A0D0004E40320F1510D005E6B0D0091
:105C6C00106A0D0010B5064C002320462360FEF789
:105C7C00DFFC2046034A0449BDE8104000F020BC7C
:105C8C0008E4032048E30320CF4B0D00F8B506468B
:105C9C000D468F180024BD420CD0336815F8011B3B
:105CAC009B6830469847002801DB0444F3E7002C3E
:105CBC0008BF04462046F8BD70B505460C4608469C
:105CCC0049B100F0E1FD2B68024621462846DB680D
:105CDC00BDE87040184770BD03689B68184730B525
:105CEC008BB00B4600218DF82410012A98BF0A2294
:105CFC000DF12304B3FBF2F505FB123303F0FF03A4
:105D0C00092B94BF30333733DBB2214604F8013909
:105D1C002B46002DEED1FFF7CFFF0BB030BD0000AE
:105D2C00014B024A1A6070470CE40320336C0D00DF
:105D3C00024B1A68024B1A60704700BFE0E2032066
:105D4C0010E4032010B58368044613B10322014606
:105D5C009847204610BD10B50446FFF7F3FF2046C8
:105D6C0010BD00000348044A04490023836000F07E
:105D7C00A7BB00BF14E4032048E30320635D0D00C0
:105D8C0008B50C4B33B100F057F903681B69984701
:105D9C00002809DC084B63B100F0CCF903681B69DF
:105DAC009847002803DC08BDAFF30080F2E7AFF39F
:105DBC00008008BD000000000000000008B5FFF7DF
:105DCC00DFFFFEF79BFB014B186008BD48E7032083
:105DDC000248034A0349121A00F0F7BC00F40320EE
:105DEC0004F40320806E0D0007B5002300931A46BF
:105DFC006FF07701FEF7D6FC03B05DF804FB0000F2
:105E0C0007B543880A2B08D0502B09D1094B1B68C6
:105E1C003BB103B05DF804EB1847FFF7E5FF06E074
:105E2C00002300931A466FF07701FEF7BBFC03B01A
:105E3C005DF804FB24E4032038B5104C104D2368A6
:105E4C00AB42104B0CBF012200221A7002D0FFF79C
:105E5C00BFFF2560FEF742FB044600F0E5FC0A4B51
:105E6C0013B12046AFF3008000210748FEF7FEFC7B
:105E7C0000210648BDE83840FEF78ABC00F4032038
:105E8C001E1C279A28E40320000000000D5E0D0064
:105E9C00704710B51821044600F020FB204610BDB9
:105EAC00F0B5037D062B8DB00E4600F104074FF0C4
:105EBC00000402D000F1080518E00CAD394605F8D5
:105ECC00304D2F232A460A20FEF7D2FB284600F03D
:105EDC00DBFC33680246DB682946304698470FE006
:105EEC0024B12E213046FFF7F7FE044415F8011DAE
:105EFC000A223046FFF7F3FEBD420444F0D120469F
:105F0C000DB0F0BD10B5054B0446112240F8043B12
:105F1C00002100F080FC204610BD00BFD46C0D00A9
:105F2C000346074A10B543F8042B01F1100251F84F
:105F3C00044B43F8044B9142F9D10A781A7010BD06
:105F4C00D46C0D0010B59DF8084044EA032343EAD5
:105F5C00024242EA016104234160037510BD37B56A
:105F6C000D788B784A78C97800912946FFF7EAFFBB
:105F7C0003B030BD41747047704708B50021007CF8
:105F8C00FEF7D6FB30EA200028BF4FF0FF3008BDEB
:105F9C0008B50121007CFEF7CBFB30EA200028BFBE
:105FAC004FF0FF3008BD08B5007CFEF7B9FB20EAC6
:105FBC00E07008BD08B5007CFEF7AAFB20EAE07093
:105FCC0008BD007CFEF7C4BB10B51421044600F0DC
:105FDC0085FA204610BD38B50446007C0D46FEF708
:105FEC009FFB002801DC607C28B12946207CFEF751
:105FFC00A7FB20EAE07038BD10B5044600236360AF
:10600C004FF47A73A360054B236001230846217477
:10601C0063741146FEF76CFB204610BDE86C0D0056
:10602C000022007CFEF76CBB10B514220446002144
:10603C0000F0F1FB204610BD30B50E4D87B001A825
:10604C00FFF7F2FF296811F0010410D12846FEF782
:10605C0022F860B101AA21460748FFF7CDFF284678
:10606C00FEF71EF8054A0649034800F029FA0248D3
:10607C0007B030BD2CE4032030E4032048E30320B8
:10608C00855F0D0070474174704708B5007CFEF7C2
:10609C0027FB20EAE07008BD08B5007CFEF700FB8A
:1060AC0020EAE07008BD08B5007CFEF709FB30EA79
:1060BC00200028BF4FF0FF3008BD08B5007CFEF76C
:1060CC00F7FA30EA200028BF4FF0FF3008BD007C03
:1060DC00FEF7FEBA10B51421044600F0FFF9204675
:1060EC0010BD70B5457C04460E4625B9007CFEF704
:1060FC00F7FA002805DD3146207CBDE87040FEF73C
:10610C00C7BA284670BD000010B5044608461146B3
:10611C00002262604FF47A72A260054A226001226A
:10612C00207462741A46FEF7ABFA204610BD00BF0D
:10613C00186D0D0038B50C4D296811F0010411D102
:10614C002846FDF7A8FF68B1084A094B09482146C3
:10615C00FFF7DAFF2846FDF7A3FF074A0749054872
:10616C0000F0AEF9034838BDDCE40320E0E4032082
:10617C0058E4032044E4032048E3032091600D001D
:10618C00002211464068FEF759BB002211464068B8
:10619C00FEF764BB00224068FEF758BB002281F07A
:1061AC0001014068FEF742BB00231A4601214068FA
:1061BC00FEF734BB00231A4619464068FEF726BB8F
:1061CC00002211464068FEF719BB002211464068B8
:1061DC00FEF704BB002202214068FEF707BB002338
:1061EC001A464068FEF7F2BA38B5054688B104681D
:1061FC004CB1A3681BB103222146204698471021BD
:10620C00204600F06BF928461421BDE8384000F018
:10621C0065B938BD10B103685B681847704710B595
:10622C0003680446BBB15868FEF7EAF978B92368ED
:10623C005A7C12B95868FEF7EBF923685868FEF7D8
:10624C00EFF920680023236028B1FFF7CDFF206809
:10625C0008B1FFF7C9FF204610BD38B50446D0F889
:10626C00C40108B1FDF715FFD4F8C00108B1FEF761
:10627C00E7F9D4F8BC5135B12846FFF7D0FF04211B
:10628C00284600F02BF9206808B1FFF7C3FF204621
:10629C0038BD000010B5044B044640F8083BFFF72E
:1062AC00DCFF204610BD00BF486D0D0038B50E4C0C
:1062BC000E4B23600025022304F5E4706360A56097
:1062CC00C4F8C451C4F8C851FEF7B2F9084BC4F86D
:1062DC00CC5184F8D05123602046064A0649BDE8CB
:1062EC00384000F0EDB800BF64E50320B06D0D0040
:1062FC00486D0D0048E30320A1620D0000221146F9
:10630C004068FEF77BBA002211464068FEF796BA49
:10631C00002211464068FEF7A1BA00224068FEF741
:10632C0095BA002281F001014068FEF77FBA002384
:10633C001A4619464068FEF771BA00231A461946E8
:10634C004068FEF763BA002211464068FEF746BA71
:10635C00002202214068FEF749BA00231A46406821
:10636C00FEF734BA024B04225A60024A1A60704794
:10637C0038E703207C6D0D0000231A464068FEF7B9
:10638C0025BA002202214068FEF730BA00221146DD
:10639C004068FEF723BA002211464068FEF72EBA79
:1063AC0000231A4619464068FEF730BA00231A46F5
:1063BC0019464068FEF732BA002281F001014068AC
:1063CC00FEF734BA00224068FEF740BA00221146AC
:1063DC004068FEF743BA002211464068FEF72EBA19
:1063EC002DE9F043002495B016460D460746FFF7FD
:1063FC0089FD214620220CA8009400F00CFA4023C1
:10640C000C9321466B460CAA3046FEF757F804460F
:10641C00002844D1024601216868FEF7EFF90221F9
:10642C00804622466868FEF7E9F9009E81462146BF
:10643C00002E34D0002932D17368022B02D00A2BE3
:10644C0009D02AE0B8F1000F27D071693846043121
:10645C00FFF785FD20E0B9F1000F1ED07469112201
:10646C0001A800F0D8F906238DF8143001AD04F121
:10647C0008031834186859682A4603C20833A34223
:10648C001546F7D101A906A807ADFFF749FD0FCDB9
:10649C003C1D0FC42B6823700121F669C8E70098D6
:1064AC00FEF704F8384615B0BDE8F083024B034AFA
:1064BC001A6000225A60704740E70320B06D0D004F
:1064CC000B460146184600F063B90000024B1868F1
:1064DC00BFF35F8F704700BF4CE70320FDF7D7BDBC
:1064EC0010B5002814BF044601242046FEF7C6F957
:1064FC0020B9FFF7EBFF08B18047F6E710BD0000AD
:10650C00184B1A68D1075CBF01221A60164B1A6827
:10651C00D2075CBF01221A60144B1A68D0075CBF0B
:10652C0001221A60124B1A68D1075CBF01221A6053
:10653C00104B1A68D2075CBF01221A600E4B1A6806
:10654C00D0075CBF01221A600C4B1A68D1075CBFE4
:10655C0001221A600A4B1A68D2075CBF01221A602A
:10656C00704700BF6CE7032068E7032064E7032053
:10657C0060E703205CE7032058E7032054E703207F
:10658C0050E70320244B1A68D0075CBF01221A6025
:10659C00224B1A68D1075CBF01221A60204B1A6883
:1065AC00D2075CBF01221A601E4B1A68D0075CBF71
:1065BC0001221A601C4B1A68D1075CBF01221A60B9
:1065CC001A4B1A68D2075CBF01221A60184B1A6862
:1065DC00D0075CBF01221A60164B1A68D1075CBF4A
:1065EC0001221A60144B1A68D2075CBF01221A6090
:1065FC00124B1A68D0075CBF01221A60104B1A6844
:10660C00D1075CBF01221A600E4B1A68D2075CBF1F
:10661C0001221A60704700BF9CE7032098E7032013
:10662C0094E7032090E703208CE7032088E70320FE
:10663C0084E7032080E703207CE7032078E703202E
:10664C0074E7032070E70320244B1A68D0075CBF63
:10665C0001221A60224B1A68D1075CBF01221A6012
:10666C00204B1A68D2075CBF01221A601E4B1A68B5
:10667C00D0075CBF01221A601C4B1A68D1075CBFA3
:10668C0001221A601A4B1A68D2075CBF01221A60E9
:10669C00184B1A68D0075CBF01221A60164B1A6897
:1066AC00D1075CBF01221A60144B1A68D2075CBF79
:1066BC0001221A60124B1A68D0075CBF01221A60C3
:1066CC00104B1A68D1075CBF01221A600E4B1A6876
:1066DC00D2075CBF01221A60704700BFCCE70320D1
:1066EC00C8E70320C4E70320C0E70320BCE703206E
:1066FC00B8E70320B4E70320B0E70320ACE703209E
:10670C00A8E70320A4E70320A0E70320184B1A688E
:10671C00D1075CBF01221A60164B1A68D2075CBF06
:10672C0001221A60144B1A68D0075CBF01221A6050
:10673C00124B1A68D1075CBF01221A60104B1A6801
:10674C00D2075CBF01221A600E4B1A68D0075CBFDF
:10675C0001221A600C4B1A68D1075CBF01221A6027
:10676C000A4B1A68D2075CBF01221A60704700BF3F
:10677C00ECE70320E8E70320E4E70320E0E703204D
:10678C00DCE70320D8E70320D4E70320D0E703207D
:10679C0010B5054C13462CB10A4601460220AFF346
:1067AC00008010BD204610BD0000000010B501395E
:1067BC000244904207D010F8013B11F8014FA3425C
:1067CC00F7D0181B10BD002010BD10B5431E0A4495
:1067DC00914204D011F8014B03F8014FF8E710BDBA
:1067EC00884210B501EB020301D8421E0BE098421F
:1067FC00FBD28118D21AD34204D013F8014D01F800
:10680C00014DF8E710BD994204D011F8014B02F884
:10681C00014FF8E710BD02440346934202D003F83F
:10682C00011BFAE77047000038B5124B1C68A36BCC
:10683C000546D3B91820FEF721F843F20E33A063B6
:10684C0003804AF6CD33438041F2342383804EF2E9
:10685C006D63C3804DF6EC630381052343810B23E9
:10686C00838101220023C0E90423A36B00221D6154
:10687C005A6138BD44E30320034611F8012B03F899
:10688C00012B002AF9D17047034613F8012B002A7B
:10689C00FBD1181A0138704710B5034601448B42DE
:1068AC0004D01A785C1C0AB12346F8E7181A10BDFC
:1068BC001D400D0059400D0085400D0089400D0014
:1068CC0000000000320036453430303030312D427B
:1068DC003541332D463339332D453041392D45352E
:1068EC003045323444434341394500364534303029
:1068FC003030322D423541332D463339332D45302E
:10690C0041392D45353045323444434341394500F6
:10691C0036453430303030332D423541332D46330B
:10692C0039332D453041392D4535304532344443CA
:10693C004341394500747800727800000000000073
:10694C000000000017490D000D490D0003490D0012
:10695C00F9480D00ED480D00E1480D00D5480D003B
:10696C00CD480D00C3480D00B9480D00ED630D0076
:10697C00776972696E670053797374656D20736CF7
:10698C0065657020636F6E66696775726174696F97
:10699C006E20697320696E76616C69642E0000004C
:1069AC000000000000000000934B0D00994B0D00FF
:1069BC00B5580D00C34B0D00954B0D0000000000A9
:1069CC00000000008D4B0D00A74B0D00C1590D00B0
:1069DC00C74B0D008F4B0D000000000000000000A5
:1069EC00874B0D00B54B0D00A1530D00CB4B0D008B
:1069FC00894B0D007BE327747BF815ACDD49A9139B
:106A0C00000072F5776972696E672E626C650053CF
:106A1C007461727420646973636F766572696E67F2
:106A2C002073657276696365732E0053746172749A
:106A3C0020646973636F766572696E672063686141
:106A4C007261637465726973746963732E00506547
:106A5C00657220646576696365206973206D69735E
:106A6C0073696E6721004661696C656420746F20E0
:106A7C00617070656E6420706565722043656E741C
:106A8C0072616C206465766963652E00436F6E6E6F
:106A9C0065637465642062792043656E7472616C01
:106AAC00206465766963652E00446973636F6E6E4E
:106ABC0065637465642062792072656D6F746520FE
:106ACC006465766963652E0043616E6E6F74206138
:106ADC006464206E657720706565722064657669E4
:106AEC0063652E004E6577207065726970686572FB
:106AFC00616C20697320636F6E6E65637465642EC0
:106B0C00004661696C656420746F20617070656EFD
:106B1C006420646973636F76657265642063686171
:106B2C0072616374657269737469632E004661697E
:106B3C006C656420746F20617070656E642064698C
:106B4C0073636F76657265642073657276696365CD
:106B5C002E004661696C656420746F2061707065ED
:106B6C006E64206C6F63616C206368617261637426
:106B7C00657269737469632E004475706C69636126
:106B8C00746564206368617261637465726973749F
:106B9C0069632063616E6E6F74206265206164644A
:106BAC0065642E00FB349B5F8000008000100000A9
:106BBC0000000000626175640053657269616C00CD
:106BCC0053657269616C3100747970650070617223
:106BDC00616D00636D6400696400686E64007374B9
:106BEC00726D0066696C74006C766C00616464484C
:106BFC00616E646C65720072656D6F766548616E6E
:106C0C00646C657200656E756D48616E646C65725E
:106C1C0073004A534F4E53747265616D4C6F6748E5
:106C2C00616E646C65720061707000253031307576
:106C3C0020005D20002564002C200028293A20002B
:106C4C00205B00636F6465203D200025690064654E
:106C5C007461696C73203D20000D0A0066006C6E37
:106C6C0000666E00636F64650064657461696C0036
:106C7C006E6F6E6500747261636500696E666F009D
:106C8C007761726E006572726F720070616E69630B
:106C9C0000616C6C005A00252B3033643A2530327D
:106CAC00750025592D256D2D25645425483A254D03
:106CBC003A2553257A0061736374696D6500000091
:106CCC000000000000000000AD5E0D009D5E0D0098
:106CDC009F5E0D000000000000000000855F0D00AD
:106CEC00D55F0D00E35F0D00995C0D00C15F0D00D9
:106CFC00875F0D009D5F0D00CF5F0D00B35F0D0032
:106D0C00815F0D00000000000000000091600D008C
:106D1C00E1600D00EF600D00995C0D00A5600D00A9
:106D2C00C7600D00B3600D00DB600D0093600D00BB
:106D3C0097600D000000000000000000EB610D00EA
:106D4C00E1610D00D7610D00CD610D00C1610D0039
:106D5C00B5610D00A9610D00A1610D0097610D00D9
:106D6C008D610D00ED630D000000000000000000BF
:106D7C0067630D005D630D0053630D0009630D0027
:106D8C0047630D003B630D002F630D0027630D005F
:106D9C001D630D0013630D00ED630D00000000007A
:106DAC000000000085630D008F630D0099630D00DA
:106DBC00A3630D00AD630D00B9630D00C5630D0039
:106DCC00D1630D00D9630D00E3630D00ED630D007D
:106DDC0000000000000000000000000000000000A7
:106DEC000000000000000000000000000000000097
:106DFC000000000000000000000000000000000087
:106E0C000000000000000000000000000000000076
:106E1C000000000000000000000000000000000066
:106E2C000000000000000000000000000000000056
:106E3C00000000004300000091430D0021490D00AB
:106E4C007D4A0D00715C0D002D5D0D003D5D0D004A
:106E5C00715D0D00B9620D0071630D00B9640D0018
:106E6C000D650D0091650D0055660D0019670D003F
:046E7C000000000012
:046E8000000000000E
:106E8400C26C0D0000000000E06D0D00006E0D00EE
:106E9400206E0D0000000000000000000000000053
:106EA40000000000406E0D00000000000000000023
:106EB40000000000000000000000000000000000CE
:106EC40000000000000000000000000000000000BE
:106ED40000000000000000000000000000000000AE
:086EE40000000000E4E20320BD
:106EEC00FFFFFFFF00000102030405060708090A63
:106EFC000B0C0D0E0F101112131415161718191A5E
:086F0C001B1C1D1E1F202800A4
:046F14007856341265
:04000003D000401CCD
:00000001FF
